{
  "contractName": "Tickets",
  "abi": [
    {
      "inputs": [],
      "stateMutability": "nonpayable",
      "type": "constructor"
    },
    {
      "anonymous": false,
      "inputs": [
        {
          "indexed": true,
          "internalType": "address",
          "name": "owner",
          "type": "address"
        },
        {
          "indexed": true,
          "internalType": "address",
          "name": "approved",
          "type": "address"
        },
        {
          "indexed": true,
          "internalType": "uint256",
          "name": "tokenId",
          "type": "uint256"
        }
      ],
      "name": "Approval",
      "type": "event"
    },
    {
      "anonymous": false,
      "inputs": [
        {
          "indexed": true,
          "internalType": "address",
          "name": "owner",
          "type": "address"
        },
        {
          "indexed": true,
          "internalType": "address",
          "name": "operator",
          "type": "address"
        },
        {
          "indexed": false,
          "internalType": "bool",
          "name": "approved",
          "type": "bool"
        }
      ],
      "name": "ApprovalForAll",
      "type": "event"
    },
    {
      "anonymous": false,
      "inputs": [
        {
          "indexed": false,
          "internalType": "uint256",
          "name": "eventIdx",
          "type": "uint256"
        }
      ],
      "name": "CreateEvent",
      "type": "event"
    },
    {
      "anonymous": false,
      "inputs": [],
      "name": "Here1",
      "type": "event"
    },
    {
      "anonymous": false,
      "inputs": [],
      "name": "Here2",
      "type": "event"
    },
    {
      "anonymous": false,
      "inputs": [
        {
          "indexed": true,
          "internalType": "address",
          "name": "buyer",
          "type": "address"
        },
        {
          "indexed": false,
          "internalType": "uint256",
          "name": "ticket_number",
          "type": "uint256"
        }
      ],
      "name": "Purchase",
      "type": "event"
    },
    {
      "anonymous": false,
      "inputs": [
        {
          "indexed": true,
          "internalType": "address",
          "name": "from",
          "type": "address"
        },
        {
          "indexed": true,
          "internalType": "address",
          "name": "to",
          "type": "address"
        },
        {
          "indexed": true,
          "internalType": "uint256",
          "name": "tokenId",
          "type": "uint256"
        }
      ],
      "name": "Transfer",
      "type": "event"
    },
    {
      "inputs": [
        {
          "internalType": "address",
          "name": "to",
          "type": "address"
        },
        {
          "internalType": "uint256",
          "name": "tokenId",
          "type": "uint256"
        }
      ],
      "name": "approve",
      "outputs": [],
      "stateMutability": "nonpayable",
      "type": "function"
    },
    {
      "inputs": [
        {
          "internalType": "address",
          "name": "owner",
          "type": "address"
        }
      ],
      "name": "balanceOf",
      "outputs": [
        {
          "internalType": "uint256",
          "name": "",
          "type": "uint256"
        }
      ],
      "stateMutability": "view",
      "type": "function"
    },
    {
      "inputs": [
        {
          "internalType": "uint256",
          "name": "tokenId",
          "type": "uint256"
        }
      ],
      "name": "getApproved",
      "outputs": [
        {
          "internalType": "address",
          "name": "",
          "type": "address"
        }
      ],
      "stateMutability": "view",
      "type": "function"
    },
    {
      "inputs": [
        {
          "internalType": "address",
          "name": "owner",
          "type": "address"
        },
        {
          "internalType": "address",
          "name": "operator",
          "type": "address"
        }
      ],
      "name": "isApprovedForAll",
      "outputs": [
        {
          "internalType": "bool",
          "name": "",
          "type": "bool"
        }
      ],
      "stateMutability": "view",
      "type": "function"
    },
    {
      "inputs": [],
      "name": "name",
      "outputs": [
        {
          "internalType": "string",
          "name": "",
          "type": "string"
        }
      ],
      "stateMutability": "view",
      "type": "function"
    },
    {
      "inputs": [
        {
          "internalType": "uint256",
          "name": "tokenId",
          "type": "uint256"
        }
      ],
      "name": "ownerOf",
      "outputs": [
        {
          "internalType": "address",
          "name": "",
          "type": "address"
        }
      ],
      "stateMutability": "view",
      "type": "function"
    },
    {
      "inputs": [
        {
          "internalType": "address",
          "name": "from",
          "type": "address"
        },
        {
          "internalType": "address",
          "name": "to",
          "type": "address"
        },
        {
          "internalType": "uint256",
          "name": "tokenId",
          "type": "uint256"
        }
      ],
      "name": "safeTransferFrom",
      "outputs": [],
      "stateMutability": "nonpayable",
      "type": "function"
    },
    {
      "inputs": [
        {
          "internalType": "address",
          "name": "from",
          "type": "address"
        },
        {
          "internalType": "address",
          "name": "to",
          "type": "address"
        },
        {
          "internalType": "uint256",
          "name": "tokenId",
          "type": "uint256"
        },
        {
          "internalType": "bytes",
          "name": "_data",
          "type": "bytes"
        }
      ],
      "name": "safeTransferFrom",
      "outputs": [],
      "stateMutability": "nonpayable",
      "type": "function"
    },
    {
      "inputs": [
        {
          "internalType": "address",
          "name": "operator",
          "type": "address"
        },
        {
          "internalType": "bool",
          "name": "approved",
          "type": "bool"
        }
      ],
      "name": "setApprovalForAll",
      "outputs": [],
      "stateMutability": "nonpayable",
      "type": "function"
    },
    {
      "inputs": [
        {
          "internalType": "bytes4",
          "name": "interfaceId",
          "type": "bytes4"
        }
      ],
      "name": "supportsInterface",
      "outputs": [
        {
          "internalType": "bool",
          "name": "",
          "type": "bool"
        }
      ],
      "stateMutability": "view",
      "type": "function"
    },
    {
      "inputs": [],
      "name": "symbol",
      "outputs": [
        {
          "internalType": "string",
          "name": "",
          "type": "string"
        }
      ],
      "stateMutability": "view",
      "type": "function"
    },
    {
      "inputs": [
        {
          "internalType": "uint256",
          "name": "tokenId",
          "type": "uint256"
        }
      ],
      "name": "tokenURI",
      "outputs": [
        {
          "internalType": "string",
          "name": "",
          "type": "string"
        }
      ],
      "stateMutability": "view",
      "type": "function"
    },
    {
      "inputs": [
        {
          "internalType": "address",
          "name": "from",
          "type": "address"
        },
        {
          "internalType": "address",
          "name": "to",
          "type": "address"
        },
        {
          "internalType": "uint256",
          "name": "tokenId",
          "type": "uint256"
        }
      ],
      "name": "transferFrom",
      "outputs": [],
      "stateMutability": "nonpayable",
      "type": "function"
    },
    {
      "inputs": [
        {
          "internalType": "address",
          "name": "_to",
          "type": "address"
        },
        {
          "internalType": "uint256",
          "name": "_tokenID",
          "type": "uint256"
        }
      ],
      "name": "transferTicket",
      "outputs": [],
      "stateMutability": "payable",
      "type": "function"
    },
    {
      "inputs": [
        {
          "internalType": "uint256",
          "name": "TicketEventIdx",
          "type": "uint256"
        }
      ],
      "name": "purchaseTicket",
      "outputs": [
        {
          "internalType": "bool",
          "name": "",
          "type": "bool"
        }
      ],
      "stateMutability": "payable",
      "type": "function"
    },
    {
      "inputs": [
        {
          "internalType": "uint256",
          "name": "TicketEventIdx",
          "type": "uint256"
        },
        {
          "internalType": "uint256",
          "name": "tokenId",
          "type": "uint256"
        }
      ],
      "name": "useTicket",
      "outputs": [
        {
          "internalType": "bool",
          "name": "",
          "type": "bool"
        }
      ],
      "stateMutability": "nonpayable",
      "type": "function"
    },
    {
      "inputs": [
        {
          "internalType": "string",
          "name": "Name",
          "type": "string"
        },
        {
          "internalType": "string",
          "name": "URL",
          "type": "string"
        },
        {
          "internalType": "uint256",
          "name": "Price",
          "type": "uint256"
        },
        {
          "internalType": "uint256",
          "name": "totalTkts",
          "type": "uint256"
        }
      ],
      "name": "createTicketEvent",
      "outputs": [
        {
          "internalType": "uint256",
          "name": "",
          "type": "uint256"
        }
      ],
      "stateMutability": "nonpayable",
      "type": "function"
    },
    {
      "inputs": [
        {
          "internalType": "uint256",
          "name": "TicketEventIndex",
          "type": "uint256"
        }
      ],
      "name": "destroyTicketEvent",
      "outputs": [],
      "stateMutability": "payable",
      "type": "function"
    },
    {
      "inputs": [
        {
          "internalType": "uint256",
          "name": "TicketEventIdx",
          "type": "uint256"
        }
      ],
      "name": "getTicketHolders",
      "outputs": [
        {
          "internalType": "address[]",
          "name": "",
          "type": "address[]"
        }
      ],
      "stateMutability": "view",
      "type": "function"
    },
    {
      "inputs": [
        {
          "internalType": "uint256",
          "name": "TicketEventIdx",
          "type": "uint256"
        }
      ],
      "name": "getTicketEventInfo",
      "outputs": [
        {
          "internalType": "string",
          "name": "",
          "type": "string"
        },
        {
          "internalType": "string",
          "name": "",
          "type": "string"
        },
        {
          "internalType": "uint256",
          "name": "",
          "type": "uint256"
        },
        {
          "internalType": "uint256",
          "name": "",
          "type": "uint256"
        }
      ],
      "stateMutability": "view",
      "type": "function"
    },
    {
      "inputs": [],
      "name": "getTicketEvents",
      "outputs": [
        {
          "components": [
            {
              "internalType": "address",
              "name": "TicketEventHolder",
              "type": "address"
            },
            {
              "internalType": "string",
              "name": "TicketEventName",
              "type": "string"
            },
            {
              "internalType": "string",
              "name": "URL",
              "type": "string"
            },
            {
              "internalType": "uint256",
              "name": "ticketPrice",
              "type": "uint256"
            },
            {
              "internalType": "uint256",
              "name": "maxSupply",
              "type": "uint256"
            },
            {
              "internalType": "uint256",
              "name": "numTicketsPurchased",
              "type": "uint256"
            },
            {
              "internalType": "bool[]",
              "name": "ticketUsed",
              "type": "bool[]"
            }
          ],
          "internalType": "struct Tickets.TicketEvent[]",
          "name": "",
          "type": "tuple[]"
        }
      ],
      "stateMutability": "view",
      "type": "function"
    }
  ],
  "bytecode": "0x60806040523480156200001157600080fd5b506040518060400160405280600b81526020017f5469636b65744576656e740000000000000000000000000000000000000000008152506040518060400160405280600381526020017f544b540000000000000000000000000000000000000000000000000000000000815250816000908051906020019062000096929190620000b8565b508060019080519060200190620000af929190620000b8565b505050620001cd565b828054620000c69062000168565b90600052602060002090601f016020900481019282620000ea576000855562000136565b82601f106200010557805160ff191683800117855562000136565b8280016001018555821562000136579182015b828111156200013557825182559160200191906001019062000118565b5b50905062000145919062000149565b5090565b5b80821115620001645760008160009055506001016200014a565b5090565b600060028204905060018216806200018157607f821691505b602082108114156200019857620001976200019e565b5b50919050565b7f4e487b7100000000000000000000000000000000000000000000000000000000600052602260045260246000fd5b61424e80620001dd6000396000f3fe6080604052600436106101295760003560e01c80636352211e116100ab578063b948348c1161006f578063b948348c146103f7578063c87b56dd14610427578063d7e2e67814610464578063e985e9c5146104a1578063ec03abd5146104de578063f85064821461050957610129565b80636352211e1461030057806370a082311461033d57806395d89b411461037a578063a22cb465146103a5578063b88d4fde146103ce57610129565b8063191f1e95116100f2578063191f1e951461023957806323b872dd14610276578063355f2a631461029f57806342842e0e146102bb57806351958a56146102e457610129565b80622a5cc91461012e57806301ffc9a71461016b57806306fdde03146101a8578063081812fc146101d3578063095ea7b314610210575b600080fd5b34801561013a57600080fd5b5061015560048036038101906101509190612dcf565b610549565b60405161016291906134ad565b60405180910390f35b34801561017757600080fd5b50610192600480360381019061018d9190612cea565b610666565b60405161019f91906134f1565b60405180910390f35b3480156101b457600080fd5b506101bd610748565b6040516101ca919061350c565b60405180910390f35b3480156101df57600080fd5b506101fa60048036038101906101f59190612dcf565b6107da565b6040516102079190613446565b60405180910390f35b34801561021c57600080fd5b5061023760048036038101906102329190612cae565b61085f565b005b34801561024557600080fd5b50610260600480360381019061025b9190612d3c565b610977565b60405161026d91906137e1565b60405180910390f35b34801561028257600080fd5b5061029d60048036038101906102989190612ba8565b610b94565b005b6102b960048036038101906102b49190612dcf565b610bf4565b005b3480156102c757600080fd5b506102e260048036038101906102dd9190612ba8565b610e0e565b005b6102fe60048036038101906102f99190612cae565b610e2e565b005b34801561030c57600080fd5b5061032760048036038101906103229190612dcf565b610ead565b6040516103349190613446565b60405180910390f35b34801561034957600080fd5b50610364600480360381019061035f9190612b43565b610f5f565b60405161037191906137e1565b60405180910390f35b34801561038657600080fd5b5061038f611017565b60405161039c919061350c565b60405180910390f35b3480156103b157600080fd5b506103cc60048036038101906103c79190612c72565b6110a9565b005b3480156103da57600080fd5b506103f560048036038101906103f09190612bf7565b61122a565b005b610411600480360381019061040c9190612dcf565b61128c565b60405161041e91906134f1565b60405180910390f35b34801561043357600080fd5b5061044e60048036038101906104499190612dcf565b61148c565b60405161045b919061350c565b60405180910390f35b34801561047057600080fd5b5061048b60048036038101906104869190612df8565b611533565b60405161049891906134f1565b60405180910390f35b3480156104ad57600080fd5b506104c860048036038101906104c39190612b6c565b61178c565b6040516104d591906134f1565b60405180910390f35b3480156104ea57600080fd5b506104f3611820565b60405161050091906134cf565b60405180910390f35b34801561051557600080fd5b50610530600480360381019061052b9190612dcf565b611a94565b604051610540949392919061352e565b60405180910390f35b60608060005b60078481548110610589577f4e487b7100000000000000000000000000000000000000000000000000000000600052603260045260246000fd5b90600052602060002090600702016005015481101561065c576006600082815260200190815260200160002060009054906101000a900473ffffffffffffffffffffffffffffffffffffffff1682828151811061060f577f4e487b7100000000000000000000000000000000000000000000000000000000600052603260045260246000fd5b602002602001019073ffffffffffffffffffffffffffffffffffffffff16908173ffffffffffffffffffffffffffffffffffffffff1681525050808061065490613b56565b91505061054f565b5080915050919050565b60007f80ac58cd000000000000000000000000000000000000000000000000000000007bffffffffffffffffffffffffffffffffffffffffffffffffffffffff1916827bffffffffffffffffffffffffffffffffffffffffffffffffffffffff1916148061073157507f5b5e139f000000000000000000000000000000000000000000000000000000007bffffffffffffffffffffffffffffffffffffffffffffffffffffffff1916827bffffffffffffffffffffffffffffffffffffffffffffffffffffffff1916145b80610741575061074082611cef565b5b9050919050565b60606000805461075790613af3565b80601f016020809104026020016040519081016040528092919081815260200182805461078390613af3565b80156107d05780601f106107a5576101008083540402835291602001916107d0565b820191906000526020600020905b8154815290600101906020018083116107b357829003601f168201915b5050505050905090565b60006107e582611d59565b610824576040517f08c379a000000000000000000000000000000000000000000000000000000000815260040161081b906136e1565b60405180910390fd5b6004600083815260200190815260200160002060009054906101000a900473ffffffffffffffffffffffffffffffffffffffff169050919050565b600061086a82610ead565b90508073ffffffffffffffffffffffffffffffffffffffff168373ffffffffffffffffffffffffffffffffffffffff1614156108db576040517f08c379a00000000000000000000000000000000000000000000000000000000081526004016108d290613741565b60405180910390fd5b8073ffffffffffffffffffffffffffffffffffffffff166108fa611dc5565b73ffffffffffffffffffffffffffffffffffffffff161480610929575061092881610923611dc5565b61178c565b5b610968576040517f08c379a000000000000000000000000000000000000000000000000000000000815260040161095f90613661565b60405180910390fd5b6109728383611dcd565b505050565b600061098161286e565b33816000019073ffffffffffffffffffffffffffffffffffffffff16908173ffffffffffffffffffffffffffffffffffffffff1681525050858160200181905250848160400181905250838160600181815250508281608001818152505060008160a0018181525050600781908060018154018082558091505060019003906000526020600020906007020160009091909190915060008201518160000160006101000a81548173ffffffffffffffffffffffffffffffffffffffff021916908373ffffffffffffffffffffffffffffffffffffffff1602179055506020820151816001019080519060200190610a799291906128c1565b506040820151816002019080519060200190610a969291906128c1565b50606082015181600301556080820151816004015560a0820151816005015560c0820151816006019080519060200190610ad1929190612947565b50505060006001600780549050610ae89190613a09565b9050600960003373ffffffffffffffffffffffffffffffffffffffff1673ffffffffffffffffffffffffffffffffffffffff1681526020019081526020016000208190806001815401808255809150506001900390600052602060002001600090919091909150557f875bdb53038c98213c9a6af73e45d73b77c6d55d1f9614a8c0624808373eda2c81604051610b7f91906137e1565b60405180910390a18092505050949350505050565b610ba5610b9f611dc5565b82611e86565b610be4576040517f08c379a0000000000000000000000000000000000000000000000000000000008152600401610bdb90613781565b60405180910390fd5b610bef838383611f64565b505050565b60078181548110610c2e577f4e487b7100000000000000000000000000000000000000000000000000000000600052603260045260246000fd5b906000526020600020906007020160000160009054906101000a900473ffffffffffffffffffffffffffffffffffffffff1673ffffffffffffffffffffffffffffffffffffffff163373ffffffffffffffffffffffffffffffffffffffff1614610ccd576040517f08c379a0000000000000000000000000000000000000000000000000000000008152600401610cc4906137a1565b60405180910390fd5b60005b60078281548110610d0a577f4e487b7100000000000000000000000000000000000000000000000000000000600052603260045260246000fd5b906000526020600020906007020160050154811015610e0a57610d2c816121c0565b6000600860006006600085815260200190815260200160002060009054906101000a900473ffffffffffffffffffffffffffffffffffffffff1673ffffffffffffffffffffffffffffffffffffffff1673ffffffffffffffffffffffffffffffffffffffff1681526020019081526020016000208190555060006006600083815260200190815260200160002060006101000a81548173ffffffffffffffffffffffffffffffffffffffff021916908373ffffffffffffffffffffffffffffffffffffffff1602179055508080610e0290613b56565b915050610cd0565b5050565b610e298383836040518060200160405280600081525061122a565b505050565b8173ffffffffffffffffffffffffffffffffffffffff16600073ffffffffffffffffffffffffffffffffffffffff161415610e9e576040517f08c379a0000000000000000000000000000000000000000000000000000000008152600401610e9590613761565b60405180910390fd5b610ea9338383610b94565b5050565b6000806002600084815260200190815260200160002060009054906101000a900473ffffffffffffffffffffffffffffffffffffffff169050600073ffffffffffffffffffffffffffffffffffffffff168173ffffffffffffffffffffffffffffffffffffffff161415610f56576040517f08c379a0000000000000000000000000000000000000000000000000000000008152600401610f4d906136a1565b60405180910390fd5b80915050919050565b60008073ffffffffffffffffffffffffffffffffffffffff168273ffffffffffffffffffffffffffffffffffffffff161415610fd0576040517f08c379a0000000000000000000000000000000000000000000000000000000008152600401610fc790613681565b60405180910390fd5b600360008373ffffffffffffffffffffffffffffffffffffffff1673ffffffffffffffffffffffffffffffffffffffff168152602001908152602001600020549050919050565b60606001805461102690613af3565b80601f016020809104026020016040519081016040528092919081815260200182805461105290613af3565b801561109f5780601f106110745761010080835404028352916020019161109f565b820191906000526020600020905b81548152906001019060200180831161108257829003601f168201915b5050505050905090565b6110b1611dc5565b73ffffffffffffffffffffffffffffffffffffffff168273ffffffffffffffffffffffffffffffffffffffff16141561111f576040517f08c379a000000000000000000000000000000000000000000000000000000000815260040161111690613621565b60405180910390fd5b806005600061112c611dc5565b73ffffffffffffffffffffffffffffffffffffffff1673ffffffffffffffffffffffffffffffffffffffff16815260200190815260200160002060008473ffffffffffffffffffffffffffffffffffffffff1673ffffffffffffffffffffffffffffffffffffffff16815260200190815260200160002060006101000a81548160ff0219169083151502179055508173ffffffffffffffffffffffffffffffffffffffff166111d9611dc5565b73ffffffffffffffffffffffffffffffffffffffff167f17307eab39ab6107e8899845ad3d59bd9653f200f220920489ca2b5937696c318360405161121e91906134f1565b60405180910390a35050565b61123b611235611dc5565b83611e86565b61127a576040517f08c379a000000000000000000000000000000000000000000000000000000000815260040161127190613781565b60405180910390fd5b611286848484846122d1565b50505050565b600080600783815481106112c9577f4e487b7100000000000000000000000000000000000000000000000000000000600052603260045260246000fd5b906000526020600020906007020190508060040154816005015410611323576040517f08c379a000000000000000000000000000000000000000000000000000000000815260040161131a906135e1565b60405180910390fd5b806003015434101561136a576040517f08c379a0000000000000000000000000000000000000000000000000000000008152600401611361906135c1565b60405180910390fd5b8060050154600860003373ffffffffffffffffffffffffffffffffffffffff1673ffffffffffffffffffffffffffffffffffffffff1681526020019081526020016000208190555033600660008360050154815260200190815260200160002060006101000a81548173ffffffffffffffffffffffffffffffffffffffff021916908373ffffffffffffffffffffffffffffffffffffffff16021790555061141633826005015461232d565b80600501600081548092919061142b90613b56565b91905055503373ffffffffffffffffffffffffffffffffffffffff167f2499a5330ab0979cc612135e7883ebc3cd5c9f7a8508f042540c34723348f632826005015460405161147a91906137e1565b60405180910390a26001915050919050565b606061149782611d59565b6114d6576040517f08c379a00000000000000000000000000000000000000000000000000000000081526004016114cd90613721565b60405180910390fd5b60006114e06124fb565b90506000815111611500576040518060200160405280600081525061152b565b8061150a84612512565b60405160200161151b929190613422565b6040516020818303038152906040525b915050919050565b60008060078481548110611570577f4e487b7100000000000000000000000000000000000000000000000000000000600052603260045260246000fd5b90600052602060002090600702019050600015158160060184815481106115c0577f4e487b7100000000000000000000000000000000000000000000000000000000600052603260045260246000fd5b90600052602060002090602091828204019190069054906101000a900460ff16151514611622576040517f08c379a0000000000000000000000000000000000000000000000000000000008152600401611619906137c1565b60405180910390fd5b7f65207ddca8ba727bcd907f20a8a145e4b9f2ed0b41f56db1b2ad2f5c2bd1a5cb60405160405180910390a1611657836121c0565b7ea54fd693d99a775904df1e632599dc34e8370a7c21a62001fe9291d401164c60405160405180910390a16000600860003373ffffffffffffffffffffffffffffffffffffffff1673ffffffffffffffffffffffffffffffffffffffff1681526020019081526020016000208190555060006006600085815260200190815260200160002060006101000a81548173ffffffffffffffffffffffffffffffffffffffff021916908373ffffffffffffffffffffffffffffffffffffffff1602179055506001816006018481548110611758577f4e487b7100000000000000000000000000000000000000000000000000000000600052603260045260246000fd5b90600052602060002090602091828204019190066101000a81548160ff021916908315150217905550600191505092915050565b6000600560008473ffffffffffffffffffffffffffffffffffffffff1673ffffffffffffffffffffffffffffffffffffffff16815260200190815260200160002060008373ffffffffffffffffffffffffffffffffffffffff1673ffffffffffffffffffffffffffffffffffffffff16815260200190815260200160002060009054906101000a900460ff16905092915050565b60606007805480602002602001604051908101604052809291908181526020016000905b82821015611a8b57838290600052602060002090600702016040518060e00160405290816000820160009054906101000a900473ffffffffffffffffffffffffffffffffffffffff1673ffffffffffffffffffffffffffffffffffffffff1673ffffffffffffffffffffffffffffffffffffffff1681526020016001820180546118cd90613af3565b80601f01602080910402602001604051908101604052809291908181526020018280546118f990613af3565b80156119465780601f1061191b57610100808354040283529160200191611946565b820191906000526020600020905b81548152906001019060200180831161192957829003601f168201915b5050505050815260200160028201805461195f90613af3565b80601f016020809104026020016040519081016040528092919081815260200182805461198b90613af3565b80156119d85780601f106119ad576101008083540402835291602001916119d8565b820191906000526020600020905b8154815290600101906020018083116119bb57829003601f168201915b5050505050815260200160038201548152602001600482015481526020016005820154815260200160068201805480602002602001604051908101604052809291908181526020018280548015611a7357602002820191906000526020600020906000905b82829054906101000a900460ff16151581526020019060010190602082600001049283019260010382029150808411611a3d5790505b50505050508152505081526020019060010190611844565b50505050905090565b60608060008060078581548110611ad4577f4e487b7100000000000000000000000000000000000000000000000000000000600052603260045260246000fd5b906000526020600020906007020160010160078681548110611b1f577f4e487b7100000000000000000000000000000000000000000000000000000000600052603260045260246000fd5b906000526020600020906007020160020160078781548110611b6a577f4e487b7100000000000000000000000000000000000000000000000000000000600052603260045260246000fd5b90600052602060002090600702016003015460078881548110611bb6577f4e487b7100000000000000000000000000000000000000000000000000000000600052603260045260246000fd5b906000526020600020906007020160050154838054611bd490613af3565b80601f0160208091040260200160405190810160405280929190818152602001828054611c0090613af3565b8015611c4d5780601f10611c2257610100808354040283529160200191611c4d565b820191906000526020600020905b815481529060010190602001808311611c3057829003601f168201915b50505050509350828054611c6090613af3565b80601f0160208091040260200160405190810160405280929190818152602001828054611c8c90613af3565b8015611cd95780601f10611cae57610100808354040283529160200191611cd9565b820191906000526020600020905b815481529060010190602001808311611cbc57829003601f168201915b5050505050925093509350935093509193509193565b60007f01ffc9a7000000000000000000000000000000000000000000000000000000007bffffffffffffffffffffffffffffffffffffffffffffffffffffffff1916827bffffffffffffffffffffffffffffffffffffffffffffffffffffffff1916149050919050565b60008073ffffffffffffffffffffffffffffffffffffffff166002600084815260200190815260200160002060009054906101000a900473ffffffffffffffffffffffffffffffffffffffff1673ffffffffffffffffffffffffffffffffffffffff1614159050919050565b600033905090565b816004600083815260200190815260200160002060006101000a81548173ffffffffffffffffffffffffffffffffffffffff021916908373ffffffffffffffffffffffffffffffffffffffff160217905550808273ffffffffffffffffffffffffffffffffffffffff16611e4083610ead565b73ffffffffffffffffffffffffffffffffffffffff167f8c5be1e5ebec7d5bd14f71427d1e84f3dd0314c0f7b2291e5b200ac8c7c3b92560405160405180910390a45050565b6000611e9182611d59565b611ed0576040517f08c379a0000000000000000000000000000000000000000000000000000000008152600401611ec790613641565b60405180910390fd5b6000611edb83610ead565b90508073ffffffffffffffffffffffffffffffffffffffff168473ffffffffffffffffffffffffffffffffffffffff161480611f4a57508373ffffffffffffffffffffffffffffffffffffffff16611f32846107da565b73ffffffffffffffffffffffffffffffffffffffff16145b80611f5b5750611f5a818561178c565b5b91505092915050565b8273ffffffffffffffffffffffffffffffffffffffff16611f8482610ead565b73ffffffffffffffffffffffffffffffffffffffff1614611fda576040517f08c379a0000000000000000000000000000000000000000000000000000000008152600401611fd190613701565b60405180910390fd5b600073ffffffffffffffffffffffffffffffffffffffff168273ffffffffffffffffffffffffffffffffffffffff16141561204a576040517f08c379a000000000000000000000000000000000000000000000000000000000815260040161204190613601565b60405180910390fd5b6120558383836126bf565b612060600082611dcd565b6001600360008573ffffffffffffffffffffffffffffffffffffffff1673ffffffffffffffffffffffffffffffffffffffff16815260200190815260200160002060008282546120b09190613a09565b925050819055506001600360008473ffffffffffffffffffffffffffffffffffffffff1673ffffffffffffffffffffffffffffffffffffffff16815260200190815260200160002060008282546121079190613982565b92505081905550816002600083815260200190815260200160002060006101000a81548173ffffffffffffffffffffffffffffffffffffffff021916908373ffffffffffffffffffffffffffffffffffffffff160217905550808273ffffffffffffffffffffffffffffffffffffffff168473ffffffffffffffffffffffffffffffffffffffff167fddf252ad1be2c89b69c2b068fc378daa952ba7f163c4a11628f55a4df523b3ef60405160405180910390a4505050565b60006121cb82610ead565b90506121d9816000846126bf565b6121e4600083611dcd565b6001600360008373ffffffffffffffffffffffffffffffffffffffff1673ffffffffffffffffffffffffffffffffffffffff16815260200190815260200160002060008282546122349190613a09565b925050819055506002600083815260200190815260200160002060006101000a81549073ffffffffffffffffffffffffffffffffffffffff021916905581600073ffffffffffffffffffffffffffffffffffffffff168273ffffffffffffffffffffffffffffffffffffffff167fddf252ad1be2c89b69c2b068fc378daa952ba7f163c4a11628f55a4df523b3ef60405160405180910390a45050565b6122dc848484611f64565b6122e8848484846126c4565b612327576040517f08c379a000000000000000000000000000000000000000000000000000000000815260040161231e90613581565b60405180910390fd5b50505050565b600073ffffffffffffffffffffffffffffffffffffffff168273ffffffffffffffffffffffffffffffffffffffff16141561239d576040517f08c379a0000000000000000000000000000000000000000000000000000000008152600401612394906136c1565b60405180910390fd5b6123a681611d59565b156123e6576040517f08c379a00000000000000000000000000000000000000000000000000000000081526004016123dd906135a1565b60405180910390fd5b6123f2600083836126bf565b6001600360008473ffffffffffffffffffffffffffffffffffffffff1673ffffffffffffffffffffffffffffffffffffffff16815260200190815260200160002060008282546124429190613982565b92505081905550816002600083815260200190815260200160002060006101000a81548173ffffffffffffffffffffffffffffffffffffffff021916908373ffffffffffffffffffffffffffffffffffffffff160217905550808273ffffffffffffffffffffffffffffffffffffffff16600073ffffffffffffffffffffffffffffffffffffffff167fddf252ad1be2c89b69c2b068fc378daa952ba7f163c4a11628f55a4df523b3ef60405160405180910390a45050565b606060405180602001604052806000815250905090565b6060600082141561255a576040518060400160405280600181526020017f300000000000000000000000000000000000000000000000000000000000000081525090506126ba565b600082905060005b6000821461258c57808061257590613b56565b915050600a8261258591906139d8565b9150612562565b60008167ffffffffffffffff8111156125ce577f4e487b7100000000000000000000000000000000000000000000000000000000600052604160045260246000fd5b6040519080825280601f01601f1916602001820160405280156126005781602001600182028036833780820191505090505b5090505b600085146126b3576001826126199190613a09565b9150600a856126289190613b9f565b60306126349190613982565b60f81b818381518110612670577f4e487b7100000000000000000000000000000000000000000000000000000000600052603260045260246000fd5b60200101907effffffffffffffffffffffffffffffffffffffffffffffffffffffffffffff1916908160001a905350600a856126ac91906139d8565b9450612604565b8093505050505b919050565b505050565b60006126e58473ffffffffffffffffffffffffffffffffffffffff1661285b565b1561284e578373ffffffffffffffffffffffffffffffffffffffff1663150b7a0261270e611dc5565b8786866040518563ffffffff1660e01b81526004016127309493929190613461565b602060405180830381600087803b15801561274a57600080fd5b505af192505050801561277b57506040513d601f19601f820116820180604052508101906127789190612d13565b60015b6127fe573d80600081146127ab576040519150601f19603f3d011682016040523d82523d6000602084013e6127b0565b606091505b506000815114156127f6576040517f08c379a00000000000000000000000000000000000000000000000000000000081526004016127ed90613581565b60405180910390fd5b805181602001fd5b63150b7a0260e01b7bffffffffffffffffffffffffffffffffffffffffffffffffffffffff1916817bffffffffffffffffffffffffffffffffffffffffffffffffffffffff191614915050612853565b600190505b949350505050565b600080823b905060008111915050919050565b6040518060e00160405280600073ffffffffffffffffffffffffffffffffffffffff1681526020016060815260200160608152602001600081526020016000815260200160008152602001606081525090565b8280546128cd90613af3565b90600052602060002090601f0160209004810192826128ef5760008555612936565b82601f1061290857805160ff1916838001178555612936565b82800160010185558215612936579182015b8281111561293557825182559160200191906001019061291a565b5b50905061294391906129ed565b5090565b82805482825590600052602060002090601f016020900481019282156129dc5791602002820160005b838211156129ad57835183826101000a81548160ff0219169083151502179055509260200192600101602081600001049283019260010302612970565b80156129da5782816101000a81549060ff02191690556001016020816000010492830192600103026129ad565b505b5090506129e991906129ed565b5090565b5b80821115612a065760008160009055506001016129ee565b5090565b6000612a1d612a1884613821565b6137fc565b905082815260208101848484011115612a3557600080fd5b612a40848285613ab1565b509392505050565b6000612a5b612a5684613852565b6137fc565b905082815260208101848484011115612a7357600080fd5b612a7e848285613ab1565b509392505050565b600081359050612a95816141bc565b92915050565b600081359050612aaa816141d3565b92915050565b600081359050612abf816141ea565b92915050565b600081519050612ad4816141ea565b92915050565b600082601f830112612aeb57600080fd5b8135612afb848260208601612a0a565b91505092915050565b600082601f830112612b1557600080fd5b8135612b25848260208601612a48565b91505092915050565b600081359050612b3d81614201565b92915050565b600060208284031215612b5557600080fd5b6000612b6384828501612a86565b91505092915050565b60008060408385031215612b7f57600080fd5b6000612b8d85828601612a86565b9250506020612b9e85828601612a86565b9150509250929050565b600080600060608486031215612bbd57600080fd5b6000612bcb86828701612a86565b9350506020612bdc86828701612a86565b9250506040612bed86828701612b2e565b9150509250925092565b60008060008060808587031215612c0d57600080fd5b6000612c1b87828801612a86565b9450506020612c2c87828801612a86565b9350506040612c3d87828801612b2e565b925050606085013567ffffffffffffffff811115612c5a57600080fd5b612c6687828801612ada565b91505092959194509250565b60008060408385031215612c8557600080fd5b6000612c9385828601612a86565b9250506020612ca485828601612a9b565b9150509250929050565b60008060408385031215612cc157600080fd5b6000612ccf85828601612a86565b9250506020612ce085828601612b2e565b9150509250929050565b600060208284031215612cfc57600080fd5b6000612d0a84828501612ab0565b91505092915050565b600060208284031215612d2557600080fd5b6000612d3384828501612ac5565b91505092915050565b60008060008060808587031215612d5257600080fd5b600085013567ffffffffffffffff811115612d6c57600080fd5b612d7887828801612b04565b945050602085013567ffffffffffffffff811115612d9557600080fd5b612da187828801612b04565b9350506040612db287828801612b2e565b9250506060612dc387828801612b2e565b91505092959194509250565b600060208284031215612de157600080fd5b6000612def84828501612b2e565b91505092915050565b60008060408385031215612e0b57600080fd5b6000612e1985828601612b2e565b9250506020612e2a85828601612b2e565b9150509250929050565b6000612e408383612e78565b60208301905092915050565b6000612e588383612fc7565b60208301905092915050565b6000612e70838361335a565b905092915050565b612e8181613a3d565b82525050565b612e9081613a3d565b82525050565b6000612ea1826138b3565b612eab8185613911565b9350612eb683613883565b8060005b83811015612ee7578151612ece8882612e34565b9750612ed9836138ea565b925050600181019050612eba565b5085935050505092915050565b6000612eff826138be565b612f098185613922565b9350612f1483613893565b8060005b83811015612f45578151612f2c8882612e4c565b9750612f37836138f7565b925050600181019050612f18565b5085935050505092915050565b6000612f5d826138c9565b612f678185613933565b935083602082028501612f79856138a3565b8060005b85811015612fb55784840389528151612f968582612e64565b9450612fa183613904565b925060208a01995050600181019050612f7d565b50829750879550505050505092915050565b612fd081613a4f565b82525050565b612fdf81613a4f565b82525050565b6000612ff0826138d4565b612ffa8185613944565b935061300a818560208601613ac0565b61301381613c8c565b840191505092915050565b6000613029826138df565b6130338185613955565b9350613043818560208601613ac0565b61304c81613c8c565b840191505092915050565b6000613062826138df565b61306c8185613966565b935061307c818560208601613ac0565b61308581613c8c565b840191505092915050565b600061309b826138df565b6130a58185613977565b93506130b5818560208601613ac0565b80840191505092915050565b60006130ce603283613966565b91506130d982613c9d565b604082019050919050565b60006130f1601c83613966565b91506130fc82613cec565b602082019050919050565b6000613114601883613966565b915061311f82613d15565b602082019050919050565b6000613137602883613966565b915061314282613d3e565b604082019050919050565b600061315a602483613966565b915061316582613d8d565b604082019050919050565b600061317d601983613966565b915061318882613ddc565b602082019050919050565b60006131a0602c83613966565b91506131ab82613e05565b604082019050919050565b60006131c3603883613966565b91506131ce82613e54565b604082019050919050565b60006131e6602a83613966565b91506131f182613ea3565b604082019050919050565b6000613209602983613966565b915061321482613ef2565b604082019050919050565b600061322c602083613966565b915061323782613f41565b602082019050919050565b600061324f602c83613966565b915061325a82613f6a565b604082019050919050565b6000613272602983613966565b915061327d82613fb9565b604082019050919050565b6000613295602f83613966565b91506132a082614008565b604082019050919050565b60006132b8602183613966565b91506132c382614057565b604082019050919050565b60006132db600f83613966565b91506132e6826140a6565b602082019050919050565b60006132fe603183613966565b9150613309826140cf565b604082019050919050565b6000613321602283613966565b915061332c8261411e565b604082019050919050565b6000613344602183613966565b915061334f8261416d565b604082019050919050565b600060e0830160008301516133726000860182612e78565b506020830151848203602086015261338a828261301e565b915050604083015184820360408601526133a4828261301e565b91505060608301516133b96060860182613404565b5060808301516133cc6080860182613404565b5060a08301516133df60a0860182613404565b5060c083015184820360c08601526133f78282612ef4565b9150508091505092915050565b61340d81613aa7565b82525050565b61341c81613aa7565b82525050565b600061342e8285613090565b915061343a8284613090565b91508190509392505050565b600060208201905061345b6000830184612e87565b92915050565b60006080820190506134766000830187612e87565b6134836020830186612e87565b6134906040830185613413565b81810360608301526134a28184612fe5565b905095945050505050565b600060208201905081810360008301526134c78184612e96565b905092915050565b600060208201905081810360008301526134e98184612f52565b905092915050565b60006020820190506135066000830184612fd6565b92915050565b600060208201905081810360008301526135268184613057565b905092915050565b600060808201905081810360008301526135488187613057565b9050818103602083015261355c8186613057565b905061356b6040830185613413565b6135786060830184613413565b95945050505050565b6000602082019050818103600083015261359a816130c1565b9050919050565b600060208201905081810360008301526135ba816130e4565b9050919050565b600060208201905081810360008301526135da81613107565b9050919050565b600060208201905081810360008301526135fa8161312a565b9050919050565b6000602082019050818103600083015261361a8161314d565b9050919050565b6000602082019050818103600083015261363a81613170565b9050919050565b6000602082019050818103600083015261365a81613193565b9050919050565b6000602082019050818103600083015261367a816131b6565b9050919050565b6000602082019050818103600083015261369a816131d9565b9050919050565b600060208201905081810360008301526136ba816131fc565b9050919050565b600060208201905081810360008301526136da8161321f565b9050919050565b600060208201905081810360008301526136fa81613242565b9050919050565b6000602082019050818103600083015261371a81613265565b9050919050565b6000602082019050818103600083015261373a81613288565b9050919050565b6000602082019050818103600083015261375a816132ab565b9050919050565b6000602082019050818103600083015261377a816132ce565b9050919050565b6000602082019050818103600083015261379a816132f1565b9050919050565b600060208201905081810360008301526137ba81613314565b9050919050565b600060208201905081810360008301526137da81613337565b9050919050565b60006020820190506137f66000830184613413565b92915050565b6000613806613817565b90506138128282613b25565b919050565b6000604051905090565b600067ffffffffffffffff82111561383c5761383b613c5d565b5b61384582613c8c565b9050602081019050919050565b600067ffffffffffffffff82111561386d5761386c613c5d565b5b61387682613c8c565b9050602081019050919050565b6000819050602082019050919050565b6000819050602082019050919050565b6000819050602082019050919050565b600081519050919050565b600081519050919050565b600081519050919050565b600081519050919050565b600081519050919050565b6000602082019050919050565b6000602082019050919050565b6000602082019050919050565b600082825260208201905092915050565b600082825260208201905092915050565b600082825260208201905092915050565b600082825260208201905092915050565b600082825260208201905092915050565b600082825260208201905092915050565b600081905092915050565b600061398d82613aa7565b915061399883613aa7565b9250827fffffffffffffffffffffffffffffffffffffffffffffffffffffffffffffffff038211156139cd576139cc613bd0565b5b828201905092915050565b60006139e382613aa7565b91506139ee83613aa7565b9250826139fe576139fd613bff565b5b828204905092915050565b6000613a1482613aa7565b9150613a1f83613aa7565b925082821015613a3257613a31613bd0565b5b828203905092915050565b6000613a4882613a87565b9050919050565b60008115159050919050565b60007fffffffff0000000000000000000000000000000000000000000000000000000082169050919050565b600073ffffffffffffffffffffffffffffffffffffffff82169050919050565b6000819050919050565b82818337600083830152505050565b60005b83811015613ade578082015181840152602081019050613ac3565b83811115613aed576000848401525b50505050565b60006002820490506001821680613b0b57607f821691505b60208210811415613b1f57613b1e613c2e565b5b50919050565b613b2e82613c8c565b810181811067ffffffffffffffff82111715613b4d57613b4c613c5d565b5b80604052505050565b6000613b6182613aa7565b91507fffffffffffffffffffffffffffffffffffffffffffffffffffffffffffffffff821415613b9457613b93613bd0565b5b600182019050919050565b6000613baa82613aa7565b9150613bb583613aa7565b925082613bc557613bc4613bff565b5b828206905092915050565b7f4e487b7100000000000000000000000000000000000000000000000000000000600052601160045260246000fd5b7f4e487b7100000000000000000000000000000000000000000000000000000000600052601260045260246000fd5b7f4e487b7100000000000000000000000000000000000000000000000000000000600052602260045260246000fd5b7f4e487b7100000000000000000000000000000000000000000000000000000000600052604160045260246000fd5b6000601f19601f8301169050919050565b7f4552433732313a207472616e7366657220746f206e6f6e20455243373231526560008201527f63656976657220696d706c656d656e7465720000000000000000000000000000602082015250565b7f4552433732313a20746f6b656e20616c7265616479206d696e74656400000000600082015250565b7f506c656173652073656e6420656e6f756768206d6f6e65790000000000000000600082015250565b7f54686973205469636b65744576656e742068617320736f6c64206f7574206f6660008201527f207469636b657473000000000000000000000000000000000000000000000000602082015250565b7f4552433732313a207472616e7366657220746f20746865207a65726f2061646460008201527f7265737300000000000000000000000000000000000000000000000000000000602082015250565b7f4552433732313a20617070726f766520746f2063616c6c657200000000000000600082015250565b7f4552433732313a206f70657261746f7220717565727920666f72206e6f6e657860008201527f697374656e7420746f6b656e0000000000000000000000000000000000000000602082015250565b7f4552433732313a20617070726f76652063616c6c6572206973206e6f74206f7760008201527f6e6572206e6f7220617070726f76656420666f7220616c6c0000000000000000602082015250565b7f4552433732313a2062616c616e636520717565727920666f7220746865207a6560008201527f726f206164647265737300000000000000000000000000000000000000000000602082015250565b7f4552433732313a206f776e657220717565727920666f72206e6f6e657869737460008201527f656e7420746f6b656e0000000000000000000000000000000000000000000000602082015250565b7f4552433732313a206d696e7420746f20746865207a65726f2061646472657373600082015250565b7f4552433732313a20617070726f76656420717565727920666f72206e6f6e657860008201527f697374656e7420746f6b656e0000000000000000000000000000000000000000602082015250565b7f4552433732313a207472616e73666572206f6620746f6b656e2074686174206960008201527f73206e6f74206f776e0000000000000000000000000000000000000000000000602082015250565b7f4552433732314d657461646174613a2055524920717565727920666f72206e6f60008201527f6e6578697374656e7420746f6b656e0000000000000000000000000000000000602082015250565b7f4552433732313a20617070726f76616c20746f2063757272656e74206f776e6560008201527f7200000000000000000000000000000000000000000000000000000000000000602082015250565b7f496e76616c696420416464726573730000000000000000000000000000000000600082015250565b7f4552433732313a207472616e736665722063616c6c6572206973206e6f74206f60008201527f776e6572206e6f7220617070726f766564000000000000000000000000000000602082015250565b7f596f7520617265206e6f7420746865205469636b65744576656e7420686f6c6460008201527f6572000000000000000000000000000000000000000000000000000000000000602082015250565b7f54686973207469636b65742068617320616c7265616479206265656e2075736560008201527f6400000000000000000000000000000000000000000000000000000000000000602082015250565b6141c581613a3d565b81146141d057600080fd5b50565b6141dc81613a4f565b81146141e757600080fd5b50565b6141f381613a5b565b81146141fe57600080fd5b50565b61420a81613aa7565b811461421557600080fd5b5056fea2646970667358221220615cad7f6131e48265bad8f0dd4da05f66fcde56b85314cf3c07f48ce593372264736f6c63430008040033",
  "immutableReferences": {},
  "source": "// contracts/MyNFT.sol\n// SPDX-License-Identifier: MIT\npragma solidity ^0.8.0;\n\nimport \"@openzeppelin/contracts/token/ERC721/ERC721.sol\";\n\ncontract Tickets is ERC721 {\n\n    event Purchase(address indexed buyer, uint ticket_number);\n    event Here1();\n    event Here2();\n    mapping(uint => address) IdxToHolder;\n\n    struct TicketEvent {\n        address TicketEventHolder;\n        string TicketEventName;\n        string URL;\n        \n        uint ticketPrice;\n        uint maxSupply;\n        //uint maxPurchaseAmount;\n\n        uint numTicketsPurchased;\n\n        bool[] ticketUsed;\n    }\n\n    event CreateEvent(uint eventIdx);\n\n    TicketEvent[] private TicketEvents;\n    mapping (address => uint) tokensOwnedByAddress;\n    \n    // Returns the index of all the TicketEvents that this owner owns in the \"TicketEvents\" array\n    mapping (address => uint256[]) private TicketEventOwners;\n    constructor() public ERC721(\"TicketEvent\", \"TKT\") {}\n    \n    function transferTicket(address _to, uint _tokenID) public payable {\n\trequire(address(0) != _to, \"Invalid Address\");\n\ttransferFrom(msg.sender, _to, _tokenID);\n    }\n\n    function purchaseTicket(uint TicketEventIdx) public payable returns (bool) {\n        TicketEvent storage thisTicketEvent = TicketEvents[TicketEventIdx];\n\n        //require (quantity <= thisTicketEvent.maxPurchaseAmount, \"Cannot purchase more than the maxPurchaseAmount for this ticket\");\n        require (thisTicketEvent.numTicketsPurchased < thisTicketEvent.maxSupply, \"This TicketEvent has sold out of tickets\");\n        require (msg.value >= thisTicketEvent.ticketPrice, \"Please send enough money\");\n\n        thisTicketEvent.numTicketsPurchased;\n        \n        //for (uint i = 0; i < quantity ; i++) {\n        tokensOwnedByAddress[msg.sender] = thisTicketEvent.numTicketsPurchased;\n\tIdxToHolder[thisTicketEvent.numTicketsPurchased] = msg.sender;\n        _mint(msg.sender, thisTicketEvent.numTicketsPurchased);\n        thisTicketEvent.numTicketsPurchased++;\n        //}\n\n        emit Purchase(msg.sender, thisTicketEvent.numTicketsPurchased);\n\n        return true;\n    }\n\n    function useTicket(uint TicketEventIdx, uint tokenId) public returns (bool) {\n        TicketEvent storage thisTicketEvent = TicketEvents[TicketEventIdx];\n        //require (tokensOwnedByAddress[msg.sender] == tokenId, \"You do not own this Token\");\n        require (thisTicketEvent.ticketUsed[tokenId] == false, \"This ticket has already been used\");\n        emit Here1();\n        _burn(tokenId);\n        emit Here2();\n\ttokensOwnedByAddress[msg.sender] = 0;\n\tIdxToHolder[tokenId] = address(0);\n        thisTicketEvent.ticketUsed[tokenId] = true;\n\n        return true;\n    }\n\n    function createTicketEvent (string memory Name, string memory URL, uint Price, uint totalTkts) public returns (uint){\n        TicketEvent memory ev1;\n        ev1.TicketEventHolder = msg.sender;\n        //ev1.TicketEventHolder : msg.sender,\n        ev1.TicketEventName = Name;\n        ev1.URL = URL;\n        ev1.ticketPrice = Price;\n        ev1.maxSupply = totalTkts;\n       \t//maxPurchaseAmount : maxBuy,\n        ev1.numTicketsPurchased = 0;\n        // });\n\n        TicketEvents.push(ev1);\n        uint TicketEventIdx = TicketEvents.length-1;\n\n        TicketEventOwners[msg.sender].push(TicketEventIdx);\n\n        emit CreateEvent(TicketEventIdx);\n\n        return TicketEventIdx;\n    }\n\n    function destroyTicketEvent(uint TicketEventIndex) public payable {\n    \trequire(msg.sender == TicketEvents[TicketEventIndex].TicketEventHolder, \"You are not the TicketEvent holder\");\n\tfor(uint i=0; i < TicketEvents[TicketEventIndex].numTicketsPurchased; i++) {\n\t\t_burn(i);\n\t\ttokensOwnedByAddress[IdxToHolder[i]] = 0;\n\t\tIdxToHolder[i] = address(0);\n\t}\n    }\n\n    // helper functions\n    function getTicketHolders(uint TicketEventIdx) public view returns (address[] memory) {\n    \taddress[] memory  ticketHold;\n    \tfor(uint i=0; i < TicketEvents[TicketEventIdx].numTicketsPurchased; i++) {\n    \t\tticketHold[i] = IdxToHolder[i];\n    \t}\n    \treturn ticketHold;\n    }\n\n    function getTicketEventInfo(uint TicketEventIdx) public view returns (string memory, string memory, uint, uint) {\n    \treturn (TicketEvents[TicketEventIdx].TicketEventName, TicketEvents[TicketEventIdx].URL, TicketEvents[TicketEventIdx].ticketPrice, TicketEvents[TicketEventIdx].numTicketsPurchased);\n    }\n    \n    function getTicketEvents() public view returns (TicketEvent[] memory) {\n    \treturn TicketEvents;\n    }\n    \n\n}\n",
  "sourcePath": "/home/jeff/ReactEtereum/Ethereum-Ticketing/contracts/Tickets.sol",
  "compiler": {
    "name": "solc",
    "version": "0.8.4+commit.c7e474f2.Emscripten.clang"
  },
  "schemaVersion": "3.3.4",
  "updatedAt": "2021-04-27T02:19:11.961Z",
  "devdoc": {
    "kind": "dev",
    "methods": {
      "approve(address,uint256)": {
        "details": "See {IERC721-approve}."
      },
      "balanceOf(address)": {
        "details": "See {IERC721-balanceOf}."
      },
      "getApproved(uint256)": {
        "details": "See {IERC721-getApproved}."
      },
      "isApprovedForAll(address,address)": {
        "details": "See {IERC721-isApprovedForAll}."
      },
      "name()": {
        "details": "See {IERC721Metadata-name}."
      },
      "ownerOf(uint256)": {
        "details": "See {IERC721-ownerOf}."
      },
      "safeTransferFrom(address,address,uint256)": {
        "details": "See {IERC721-safeTransferFrom}."
      },
      "safeTransferFrom(address,address,uint256,bytes)": {
        "details": "See {IERC721-safeTransferFrom}."
      },
      "setApprovalForAll(address,bool)": {
        "details": "See {IERC721-setApprovalForAll}."
      },
      "supportsInterface(bytes4)": {
        "details": "See {IERC165-supportsInterface}."
      },
      "symbol()": {
        "details": "See {IERC721Metadata-symbol}."
      },
      "tokenURI(uint256)": {
        "details": "See {IERC721Metadata-tokenURI}."
      },
      "transferFrom(address,address,uint256)": {
        "details": "See {IERC721-transferFrom}."
      }
    },
    "version": 1
  },
  "userdoc": {
    "kind": "user",
    "methods": {},
    "version": 1
  }
}