{
  "contractName": "Tickets",
  "abi": [
    {
      "inputs": [],
      "stateMutability": "nonpayable",
      "type": "constructor"
    },
    {
      "anonymous": false,
      "inputs": [
        {
          "indexed": true,
          "internalType": "address",
          "name": "owner",
          "type": "address"
        },
        {
          "indexed": true,
          "internalType": "address",
          "name": "approved",
          "type": "address"
        },
        {
          "indexed": true,
          "internalType": "uint256",
          "name": "tokenId",
          "type": "uint256"
        }
      ],
      "name": "Approval",
      "type": "event"
    },
    {
      "anonymous": false,
      "inputs": [
        {
          "indexed": true,
          "internalType": "address",
          "name": "owner",
          "type": "address"
        },
        {
          "indexed": true,
          "internalType": "address",
          "name": "operator",
          "type": "address"
        },
        {
          "indexed": false,
          "internalType": "bool",
          "name": "approved",
          "type": "bool"
        }
      ],
      "name": "ApprovalForAll",
      "type": "event"
    },
    {
      "anonymous": false,
      "inputs": [
        {
          "indexed": true,
          "internalType": "address",
          "name": "from",
          "type": "address"
        },
        {
          "indexed": true,
          "internalType": "address",
          "name": "to",
          "type": "address"
        },
        {
          "indexed": true,
          "internalType": "uint256",
          "name": "tokenId",
          "type": "uint256"
        }
      ],
      "name": "Transfer",
      "type": "event"
    },
    {
      "inputs": [
        {
          "internalType": "address",
          "name": "to",
          "type": "address"
        },
        {
          "internalType": "uint256",
          "name": "tokenId",
          "type": "uint256"
        }
      ],
      "name": "approve",
      "outputs": [],
      "stateMutability": "nonpayable",
      "type": "function"
    },
    {
      "inputs": [
        {
          "internalType": "address",
          "name": "owner",
          "type": "address"
        }
      ],
      "name": "balanceOf",
      "outputs": [
        {
          "internalType": "uint256",
          "name": "",
          "type": "uint256"
        }
      ],
      "stateMutability": "view",
      "type": "function"
    },
    {
      "inputs": [
        {
          "internalType": "uint256",
          "name": "tokenId",
          "type": "uint256"
        }
      ],
      "name": "getApproved",
      "outputs": [
        {
          "internalType": "address",
          "name": "",
          "type": "address"
        }
      ],
      "stateMutability": "view",
      "type": "function"
    },
    {
      "inputs": [
        {
          "internalType": "address",
          "name": "owner",
          "type": "address"
        },
        {
          "internalType": "address",
          "name": "operator",
          "type": "address"
        }
      ],
      "name": "isApprovedForAll",
      "outputs": [
        {
          "internalType": "bool",
          "name": "",
          "type": "bool"
        }
      ],
      "stateMutability": "view",
      "type": "function"
    },
    {
      "inputs": [],
      "name": "name",
      "outputs": [
        {
          "internalType": "string",
          "name": "",
          "type": "string"
        }
      ],
      "stateMutability": "view",
      "type": "function"
    },
    {
      "inputs": [
        {
          "internalType": "uint256",
          "name": "tokenId",
          "type": "uint256"
        }
      ],
      "name": "ownerOf",
      "outputs": [
        {
          "internalType": "address",
          "name": "",
          "type": "address"
        }
      ],
      "stateMutability": "view",
      "type": "function"
    },
    {
      "inputs": [
        {
          "internalType": "address",
          "name": "from",
          "type": "address"
        },
        {
          "internalType": "address",
          "name": "to",
          "type": "address"
        },
        {
          "internalType": "uint256",
          "name": "tokenId",
          "type": "uint256"
        }
      ],
      "name": "safeTransferFrom",
      "outputs": [],
      "stateMutability": "nonpayable",
      "type": "function"
    },
    {
      "inputs": [
        {
          "internalType": "address",
          "name": "from",
          "type": "address"
        },
        {
          "internalType": "address",
          "name": "to",
          "type": "address"
        },
        {
          "internalType": "uint256",
          "name": "tokenId",
          "type": "uint256"
        },
        {
          "internalType": "bytes",
          "name": "_data",
          "type": "bytes"
        }
      ],
      "name": "safeTransferFrom",
      "outputs": [],
      "stateMutability": "nonpayable",
      "type": "function"
    },
    {
      "inputs": [
        {
          "internalType": "address",
          "name": "operator",
          "type": "address"
        },
        {
          "internalType": "bool",
          "name": "approved",
          "type": "bool"
        }
      ],
      "name": "setApprovalForAll",
      "outputs": [],
      "stateMutability": "nonpayable",
      "type": "function"
    },
    {
      "inputs": [
        {
          "internalType": "bytes4",
          "name": "interfaceId",
          "type": "bytes4"
        }
      ],
      "name": "supportsInterface",
      "outputs": [
        {
          "internalType": "bool",
          "name": "",
          "type": "bool"
        }
      ],
      "stateMutability": "view",
      "type": "function"
    },
    {
      "inputs": [],
      "name": "symbol",
      "outputs": [
        {
          "internalType": "string",
          "name": "",
          "type": "string"
        }
      ],
      "stateMutability": "view",
      "type": "function"
    },
    {
      "inputs": [
        {
          "internalType": "uint256",
          "name": "tokenId",
          "type": "uint256"
        }
      ],
      "name": "tokenURI",
      "outputs": [
        {
          "internalType": "string",
          "name": "",
          "type": "string"
        }
      ],
      "stateMutability": "view",
      "type": "function"
    },
    {
      "inputs": [
        {
          "internalType": "address",
          "name": "from",
          "type": "address"
        },
        {
          "internalType": "address",
          "name": "to",
          "type": "address"
        },
        {
          "internalType": "uint256",
          "name": "tokenId",
          "type": "uint256"
        }
      ],
      "name": "transferFrom",
      "outputs": [],
      "stateMutability": "nonpayable",
      "type": "function"
    },
    {
      "inputs": [
        {
          "internalType": "address",
          "name": "_to",
          "type": "address"
        },
        {
          "internalType": "uint256",
          "name": "_tokenID",
          "type": "uint256"
        }
      ],
      "name": "transferTicket",
      "outputs": [],
      "stateMutability": "payable",
      "type": "function"
    },
    {
      "inputs": [
        {
          "internalType": "uint256",
          "name": "eventIdx",
          "type": "uint256"
        }
      ],
      "name": "purchaseTicket",
      "outputs": [
        {
          "internalType": "bool",
          "name": "",
          "type": "bool"
        }
      ],
      "stateMutability": "payable",
      "type": "function"
    },
    {
      "inputs": [
        {
          "internalType": "uint256",
          "name": "eventIdx",
          "type": "uint256"
        },
        {
          "internalType": "uint256",
          "name": "tokenId",
          "type": "uint256"
        }
      ],
      "name": "useTicket",
      "outputs": [
        {
          "internalType": "bool",
          "name": "",
          "type": "bool"
        }
      ],
      "stateMutability": "nonpayable",
      "type": "function"
    },
    {
      "inputs": [
        {
          "internalType": "string",
          "name": "Name",
          "type": "string"
        },
        {
          "internalType": "string",
          "name": "URL",
          "type": "string"
        },
        {
          "internalType": "uint256",
          "name": "Price",
          "type": "uint256"
        },
        {
          "internalType": "uint256",
          "name": "totalTkts",
          "type": "uint256"
        }
      ],
      "name": "createEvent",
      "outputs": [
        {
          "internalType": "uint256",
          "name": "",
          "type": "uint256"
        }
      ],
      "stateMutability": "nonpayable",
      "type": "function"
    },
    {
      "inputs": [
        {
          "internalType": "uint256",
          "name": "eventIndex",
          "type": "uint256"
        }
      ],
      "name": "destroyEvent",
      "outputs": [],
      "stateMutability": "payable",
      "type": "function"
    },
    {
      "inputs": [
        {
          "internalType": "uint256",
          "name": "eventIdx",
          "type": "uint256"
        }
      ],
      "name": "getTicketHolders",
      "outputs": [
        {
          "internalType": "address[]",
          "name": "",
          "type": "address[]"
        }
      ],
      "stateMutability": "view",
      "type": "function"
    },
    {
      "inputs": [
        {
          "internalType": "uint256",
          "name": "eventIdx",
          "type": "uint256"
        }
      ],
      "name": "getEventInfo",
      "outputs": [
        {
          "internalType": "string",
          "name": "",
          "type": "string"
        },
        {
          "internalType": "string",
          "name": "",
          "type": "string"
        },
        {
          "internalType": "uint256",
          "name": "",
          "type": "uint256"
        },
        {
          "internalType": "uint256",
          "name": "",
          "type": "uint256"
        }
      ],
      "stateMutability": "view",
      "type": "function"
    },
    {
      "inputs": [],
      "name": "getEvents",
      "outputs": [
        {
          "components": [
            {
              "internalType": "address",
              "name": "eventHolder",
              "type": "address"
            },
            {
              "internalType": "string",
              "name": "eventName",
              "type": "string"
            },
            {
              "internalType": "string",
              "name": "URL",
              "type": "string"
            },
            {
              "internalType": "uint256",
              "name": "ticketPrice",
              "type": "uint256"
            },
            {
              "internalType": "uint256",
              "name": "maxSupply",
              "type": "uint256"
            },
            {
              "internalType": "uint256",
              "name": "numTicketsPurchased",
              "type": "uint256"
            },
            {
              "internalType": "bool[]",
              "name": "ticketUsed",
              "type": "bool[]"
            }
          ],
          "internalType": "struct Tickets.Event[]",
          "name": "",
          "type": "tuple[]"
        }
      ],
      "stateMutability": "view",
      "type": "function"
    }
  ],
  "bytecode": "0x60806040523480156200001157600080fd5b506040518060400160405280600581526020017f4576656e740000000000000000000000000000000000000000000000000000008152506040518060400160405280600381526020017f544b540000000000000000000000000000000000000000000000000000000000815250816000908051906020019062000096929190620000b8565b508060019080519060200190620000af929190620000b8565b505050620001cd565b828054620000c69062000168565b90600052602060002090601f016020900481019282620000ea576000855562000136565b82601f106200010557805160ff191683800117855562000136565b8280016001018555821562000136579182015b828111156200013557825182559160200191906001019062000118565b5b50905062000145919062000149565b5090565b5b80821115620001645760008160009055506001016200014a565b5090565b600060028204905060018216806200018157607f821691505b602082108114156200019857620001976200019e565b5b50919050565b7f4e487b7100000000000000000000000000000000000000000000000000000000600052602260045260246000fd5b61426f80620001dd6000396000f3fe6080604052600436106101295760003560e01c80635e0fcfb4116100ab578063b88d4fde1161006f578063b88d4fde146103fc578063b948348c14610425578063bce062b914610455578063c87b56dd14610492578063d7e2e678146104cf578063e985e9c51461050c57610129565b80635e0fcfb4146103125780636352211e1461032e57806370a082311461036b57806395d89b41146103a8578063a22cb465146103d357610129565b80631d645b12116100f25780631d645b121461023957806323b872dd14610279578063404aa8f9146102a257806342842e0e146102cd57806351958a56146102f657610129565b80622a5cc91461012e57806301ffc9a71461016b57806306fdde03146101a8578063081812fc146101d3578063095ea7b314610210575b600080fd5b34801561013a57600080fd5b5061015560048036038101906101509190612d80565b610549565b6040516101629190613481565b60405180910390f35b34801561017757600080fd5b50610192600480360381019061018d9190612c9b565b610666565b60405161019f91906134c5565b60405180910390f35b3480156101b457600080fd5b506101bd610748565b6040516101ca91906134e0565b60405180910390f35b3480156101df57600080fd5b506101fa60048036038101906101f59190612d80565b6107da565b604051610207919061341a565b60405180910390f35b34801561021c57600080fd5b5061023760048036038101906102329190612c5f565b61085f565b005b34801561024557600080fd5b50610260600480360381019061025b9190612d80565b610977565b6040516102709493929190613502565b60405180910390f35b34801561028557600080fd5b506102a0600480360381019061029b9190612b59565b610bd2565b005b3480156102ae57600080fd5b506102b7610c32565b6040516102c491906134a3565b60405180910390f35b3480156102d957600080fd5b506102f460048036038101906102ef9190612b59565b610ea6565b005b610310600480360381019061030b9190612c5f565b610ec6565b005b61032c60048036038101906103279190612d80565b610f45565b005b34801561033a57600080fd5b5061035560048036038101906103509190612d80565b61115f565b604051610362919061341a565b60405180910390f35b34801561037757600080fd5b50610392600480360381019061038d9190612af4565b611211565b60405161039f91906137d5565b60405180910390f35b3480156103b457600080fd5b506103bd6112c9565b6040516103ca91906134e0565b60405180910390f35b3480156103df57600080fd5b506103fa60048036038101906103f59190612c23565b61135b565b005b34801561040857600080fd5b50610423600480360381019061041e9190612ba8565b6114dc565b005b61043f600480360381019061043a9190612d80565b61153e565b60405161044c91906134c5565b60405180910390f35b34801561046157600080fd5b5061047c60048036038101906104779190612ced565b6116ec565b60405161048991906137d5565b60405180910390f35b34801561049e57600080fd5b506104b960048036038101906104b49190612d80565b6118d2565b6040516104c691906134e0565b60405180910390f35b3480156104db57600080fd5b506104f660048036038101906104f19190612da9565b611979565b60405161050391906134c5565b60405180910390f35b34801561051857600080fd5b50610533600480360381019061052e9190612b1d565b611c0c565b60405161054091906134c5565b60405180910390f35b60608060005b60078481548110610589577f4e487b7100000000000000000000000000000000000000000000000000000000600052603260045260246000fd5b90600052602060002090600702016005015481101561065c576006600082815260200190815260200160002060009054906101000a900473ffffffffffffffffffffffffffffffffffffffff1682828151811061060f577f4e487b7100000000000000000000000000000000000000000000000000000000600052603260045260246000fd5b602002602001019073ffffffffffffffffffffffffffffffffffffffff16908173ffffffffffffffffffffffffffffffffffffffff1681525050808061065490613b74565b91505061054f565b5080915050919050565b60007f80ac58cd000000000000000000000000000000000000000000000000000000007bffffffffffffffffffffffffffffffffffffffffffffffffffffffff1916827bffffffffffffffffffffffffffffffffffffffffffffffffffffffff1916148061073157507f5b5e139f000000000000000000000000000000000000000000000000000000007bffffffffffffffffffffffffffffffffffffffffffffffffffffffff1916827bffffffffffffffffffffffffffffffffffffffffffffffffffffffff1916145b80610741575061074082611ca0565b5b9050919050565b60606000805461075790613b11565b80601f016020809104026020016040519081016040528092919081815260200182805461078390613b11565b80156107d05780601f106107a5576101008083540402835291602001916107d0565b820191906000526020600020905b8154815290600101906020018083116107b357829003601f168201915b5050505050905090565b60006107e582611d0a565b610824576040517f08c379a000000000000000000000000000000000000000000000000000000000815260040161081b906136b5565b60405180910390fd5b6004600083815260200190815260200160002060009054906101000a900473ffffffffffffffffffffffffffffffffffffffff169050919050565b600061086a8261115f565b90508073ffffffffffffffffffffffffffffffffffffffff168373ffffffffffffffffffffffffffffffffffffffff1614156108db576040517f08c379a00000000000000000000000000000000000000000000000000000000081526004016108d290613715565b60405180910390fd5b8073ffffffffffffffffffffffffffffffffffffffff166108fa611d76565b73ffffffffffffffffffffffffffffffffffffffff161480610929575061092881610923611d76565b611c0c565b5b610968576040517f08c379a000000000000000000000000000000000000000000000000000000000815260040161095f90613635565b60405180910390fd5b6109728383611d7e565b505050565b606080600080600785815481106109b7577f4e487b7100000000000000000000000000000000000000000000000000000000600052603260045260246000fd5b906000526020600020906007020160010160078681548110610a02577f4e487b7100000000000000000000000000000000000000000000000000000000600052603260045260246000fd5b906000526020600020906007020160020160078781548110610a4d577f4e487b7100000000000000000000000000000000000000000000000000000000600052603260045260246000fd5b90600052602060002090600702016003015460078881548110610a99577f4e487b7100000000000000000000000000000000000000000000000000000000600052603260045260246000fd5b906000526020600020906007020160050154838054610ab790613b11565b80601f0160208091040260200160405190810160405280929190818152602001828054610ae390613b11565b8015610b305780601f10610b0557610100808354040283529160200191610b30565b820191906000526020600020905b815481529060010190602001808311610b1357829003601f168201915b50505050509350828054610b4390613b11565b80601f0160208091040260200160405190810160405280929190818152602001828054610b6f90613b11565b8015610bbc5780601f10610b9157610100808354040283529160200191610bbc565b820191906000526020600020905b815481529060010190602001808311610b9f57829003601f168201915b5050505050925093509350935093509193509193565b610be3610bdd611d76565b82611e37565b610c22576040517f08c379a0000000000000000000000000000000000000000000000000000000008152600401610c1990613755565b60405180910390fd5b610c2d838383611f15565b505050565b60606007805480602002602001604051908101604052809291908181526020016000905b82821015610e9d57838290600052602060002090600702016040518060e00160405290816000820160009054906101000a900473ffffffffffffffffffffffffffffffffffffffff1673ffffffffffffffffffffffffffffffffffffffff1673ffffffffffffffffffffffffffffffffffffffff168152602001600182018054610cdf90613b11565b80601f0160208091040260200160405190810160405280929190818152602001828054610d0b90613b11565b8015610d585780601f10610d2d57610100808354040283529160200191610d58565b820191906000526020600020905b815481529060010190602001808311610d3b57829003601f168201915b50505050508152602001600282018054610d7190613b11565b80601f0160208091040260200160405190810160405280929190818152602001828054610d9d90613b11565b8015610dea5780601f10610dbf57610100808354040283529160200191610dea565b820191906000526020600020905b815481529060010190602001808311610dcd57829003601f168201915b5050505050815260200160038201548152602001600482015481526020016005820154815260200160068201805480602002602001604051908101604052809291908181526020018280548015610e8557602002820191906000526020600020906000905b82829054906101000a900460ff16151581526020019060010190602082600001049283019260010382029150808411610e4f5790505b50505050508152505081526020019060010190610c56565b50505050905090565b610ec1838383604051806020016040528060008152506114dc565b505050565b8173ffffffffffffffffffffffffffffffffffffffff16600073ffffffffffffffffffffffffffffffffffffffff161415610f36576040517f08c379a0000000000000000000000000000000000000000000000000000000008152600401610f2d90613735565b60405180910390fd5b610f41338383610bd2565b5050565b60078181548110610f7f577f4e487b7100000000000000000000000000000000000000000000000000000000600052603260045260246000fd5b906000526020600020906007020160000160009054906101000a900473ffffffffffffffffffffffffffffffffffffffff1673ffffffffffffffffffffffffffffffffffffffff163373ffffffffffffffffffffffffffffffffffffffff161461101e576040517f08c379a000000000000000000000000000000000000000000000000000000000815260040161101590613615565b60405180910390fd5b60005b6007828154811061105b577f4e487b7100000000000000000000000000000000000000000000000000000000600052603260045260246000fd5b90600052602060002090600702016005015481101561115b5761107d81612171565b6000600860006006600085815260200190815260200160002060009054906101000a900473ffffffffffffffffffffffffffffffffffffffff1673ffffffffffffffffffffffffffffffffffffffff1673ffffffffffffffffffffffffffffffffffffffff1681526020019081526020016000208190555060006006600083815260200190815260200160002060006101000a81548173ffffffffffffffffffffffffffffffffffffffff021916908373ffffffffffffffffffffffffffffffffffffffff160217905550808061115390613b74565b915050611021565b5050565b6000806002600084815260200190815260200160002060009054906101000a900473ffffffffffffffffffffffffffffffffffffffff169050600073ffffffffffffffffffffffffffffffffffffffff168173ffffffffffffffffffffffffffffffffffffffff161415611208576040517f08c379a00000000000000000000000000000000000000000000000000000000081526004016111ff90613675565b60405180910390fd5b80915050919050565b60008073ffffffffffffffffffffffffffffffffffffffff168273ffffffffffffffffffffffffffffffffffffffff161415611282576040517f08c379a000000000000000000000000000000000000000000000000000000000815260040161127990613655565b60405180910390fd5b600360008373ffffffffffffffffffffffffffffffffffffffff1673ffffffffffffffffffffffffffffffffffffffff168152602001908152602001600020549050919050565b6060600180546112d890613b11565b80601f016020809104026020016040519081016040528092919081815260200182805461130490613b11565b80156113515780601f1061132657610100808354040283529160200191611351565b820191906000526020600020905b81548152906001019060200180831161133457829003601f168201915b5050505050905090565b611363611d76565b73ffffffffffffffffffffffffffffffffffffffff168273ffffffffffffffffffffffffffffffffffffffff1614156113d1576040517f08c379a00000000000000000000000000000000000000000000000000000000081526004016113c8906135d5565b60405180910390fd5b80600560006113de611d76565b73ffffffffffffffffffffffffffffffffffffffff1673ffffffffffffffffffffffffffffffffffffffff16815260200190815260200160002060008473ffffffffffffffffffffffffffffffffffffffff1673ffffffffffffffffffffffffffffffffffffffff16815260200190815260200160002060006101000a81548160ff0219169083151502179055508173ffffffffffffffffffffffffffffffffffffffff1661148b611d76565b73ffffffffffffffffffffffffffffffffffffffff167f17307eab39ab6107e8899845ad3d59bd9653f200f220920489ca2b5937696c31836040516114d091906134c5565b60405180910390a35050565b6114ed6114e7611d76565b83611e37565b61152c576040517f08c379a000000000000000000000000000000000000000000000000000000000815260040161152390613755565b60405180910390fd5b61153884848484612282565b50505050565b6000806007838154811061157b577f4e487b7100000000000000000000000000000000000000000000000000000000600052603260045260246000fd5b9060005260206000209060070201905080600401548160050154106115d5576040517f08c379a00000000000000000000000000000000000000000000000000000000081526004016115cc90613775565b60405180910390fd5b806003015434101561161c576040517f08c379a000000000000000000000000000000000000000000000000000000000815260040161161390613595565b60405180910390fd5b8060050154600860003373ffffffffffffffffffffffffffffffffffffffff1673ffffffffffffffffffffffffffffffffffffffff1681526020019081526020016000208190555033600660008360050154815260200190815260200160002060006101000a81548173ffffffffffffffffffffffffffffffffffffffff021916908373ffffffffffffffffffffffffffffffffffffffff1602179055506116c83382600501546122de565b8060050160008154809291906116dd90613b74565b91905055506001915050919050565b60006116f661281f565b33816000019073ffffffffffffffffffffffffffffffffffffffff16908173ffffffffffffffffffffffffffffffffffffffff1681525050858160200181905250848160400181905250838160600181815250508281608001818152505060008160a0018181525050600781908060018154018082558091505060019003906000526020600020906007020160009091909190915060008201518160000160006101000a81548173ffffffffffffffffffffffffffffffffffffffff021916908373ffffffffffffffffffffffffffffffffffffffff16021790555060208201518160010190805190602001906117ee929190612872565b50604082015181600201908051906020019061180b929190612872565b50606082015181600301556080820151816004015560a0820151816005015560c08201518160060190805190602001906118469291906128f8565b5050506000600160078054905061185d91906139fd565b9050600960003373ffffffffffffffffffffffffffffffffffffffff1673ffffffffffffffffffffffffffffffffffffffff1681526020019081526020016000208190806001815401808255809150506001900390600052602060002001600090919091909150558092505050949350505050565b60606118dd82611d0a565b61191c576040517f08c379a0000000000000000000000000000000000000000000000000000000008152600401611913906136f5565b60405180910390fd5b60006119266124ac565b905060008151116119465760405180602001604052806000815250611971565b80611950846124c3565b6040516020016119619291906133f6565b6040516020818303038152906040525b915050919050565b600080600784815481106119b6577f4e487b7100000000000000000000000000000000000000000000000000000000600052603260045260246000fd5b9060005260206000209060070201905082600860003373ffffffffffffffffffffffffffffffffffffffff1673ffffffffffffffffffffffffffffffffffffffff1681526020019081526020016000205414611a47576040517f08c379a0000000000000000000000000000000000000000000000000000000008152600401611a3e90613795565b60405180910390fd5b60001515816006018481548110611a87577f4e487b7100000000000000000000000000000000000000000000000000000000600052603260045260246000fd5b90600052602060002090602091828204019190069054906101000a900460ff16151514611ae9576040517f08c379a0000000000000000000000000000000000000000000000000000000008152600401611ae0906137b5565b60405180910390fd5b611af283612171565b600860003373ffffffffffffffffffffffffffffffffffffffff1673ffffffffffffffffffffffffffffffffffffffff1681526020019081526020016000206000815480929190611b4290613ae7565b919050555060006006600085815260200190815260200160002060006101000a81548173ffffffffffffffffffffffffffffffffffffffff021916908373ffffffffffffffffffffffffffffffffffffffff1602179055506001816006018481548110611bd8577f4e487b7100000000000000000000000000000000000000000000000000000000600052603260045260246000fd5b90600052602060002090602091828204019190066101000a81548160ff021916908315150217905550600191505092915050565b6000600560008473ffffffffffffffffffffffffffffffffffffffff1673ffffffffffffffffffffffffffffffffffffffff16815260200190815260200160002060008373ffffffffffffffffffffffffffffffffffffffff1673ffffffffffffffffffffffffffffffffffffffff16815260200190815260200160002060009054906101000a900460ff16905092915050565b60007f01ffc9a7000000000000000000000000000000000000000000000000000000007bffffffffffffffffffffffffffffffffffffffffffffffffffffffff1916827bffffffffffffffffffffffffffffffffffffffffffffffffffffffff1916149050919050565b60008073ffffffffffffffffffffffffffffffffffffffff166002600084815260200190815260200160002060009054906101000a900473ffffffffffffffffffffffffffffffffffffffff1673ffffffffffffffffffffffffffffffffffffffff1614159050919050565b600033905090565b816004600083815260200190815260200160002060006101000a81548173ffffffffffffffffffffffffffffffffffffffff021916908373ffffffffffffffffffffffffffffffffffffffff160217905550808273ffffffffffffffffffffffffffffffffffffffff16611df18361115f565b73ffffffffffffffffffffffffffffffffffffffff167f8c5be1e5ebec7d5bd14f71427d1e84f3dd0314c0f7b2291e5b200ac8c7c3b92560405160405180910390a45050565b6000611e4282611d0a565b611e81576040517f08c379a0000000000000000000000000000000000000000000000000000000008152600401611e78906135f5565b60405180910390fd5b6000611e8c8361115f565b90508073ffffffffffffffffffffffffffffffffffffffff168473ffffffffffffffffffffffffffffffffffffffff161480611efb57508373ffffffffffffffffffffffffffffffffffffffff16611ee3846107da565b73ffffffffffffffffffffffffffffffffffffffff16145b80611f0c5750611f0b8185611c0c565b5b91505092915050565b8273ffffffffffffffffffffffffffffffffffffffff16611f358261115f565b73ffffffffffffffffffffffffffffffffffffffff1614611f8b576040517f08c379a0000000000000000000000000000000000000000000000000000000008152600401611f82906136d5565b60405180910390fd5b600073ffffffffffffffffffffffffffffffffffffffff168273ffffffffffffffffffffffffffffffffffffffff161415611ffb576040517f08c379a0000000000000000000000000000000000000000000000000000000008152600401611ff2906135b5565b60405180910390fd5b612006838383612670565b612011600082611d7e565b6001600360008573ffffffffffffffffffffffffffffffffffffffff1673ffffffffffffffffffffffffffffffffffffffff168152602001908152602001600020600082825461206191906139fd565b925050819055506001600360008473ffffffffffffffffffffffffffffffffffffffff1673ffffffffffffffffffffffffffffffffffffffff16815260200190815260200160002060008282546120b89190613976565b92505081905550816002600083815260200190815260200160002060006101000a81548173ffffffffffffffffffffffffffffffffffffffff021916908373ffffffffffffffffffffffffffffffffffffffff160217905550808273ffffffffffffffffffffffffffffffffffffffff168473ffffffffffffffffffffffffffffffffffffffff167fddf252ad1be2c89b69c2b068fc378daa952ba7f163c4a11628f55a4df523b3ef60405160405180910390a4505050565b600061217c8261115f565b905061218a81600084612670565b612195600083611d7e565b6001600360008373ffffffffffffffffffffffffffffffffffffffff1673ffffffffffffffffffffffffffffffffffffffff16815260200190815260200160002060008282546121e591906139fd565b925050819055506002600083815260200190815260200160002060006101000a81549073ffffffffffffffffffffffffffffffffffffffff021916905581600073ffffffffffffffffffffffffffffffffffffffff168273ffffffffffffffffffffffffffffffffffffffff167fddf252ad1be2c89b69c2b068fc378daa952ba7f163c4a11628f55a4df523b3ef60405160405180910390a45050565b61228d848484611f15565b61229984848484612675565b6122d8576040517f08c379a00000000000000000000000000000000000000000000000000000000081526004016122cf90613555565b60405180910390fd5b50505050565b600073ffffffffffffffffffffffffffffffffffffffff168273ffffffffffffffffffffffffffffffffffffffff16141561234e576040517f08c379a000000000000000000000000000000000000000000000000000000000815260040161234590613695565b60405180910390fd5b61235781611d0a565b15612397576040517f08c379a000000000000000000000000000000000000000000000000000000000815260040161238e90613575565b60405180910390fd5b6123a360008383612670565b6001600360008473ffffffffffffffffffffffffffffffffffffffff1673ffffffffffffffffffffffffffffffffffffffff16815260200190815260200160002060008282546123f39190613976565b92505081905550816002600083815260200190815260200160002060006101000a81548173ffffffffffffffffffffffffffffffffffffffff021916908373ffffffffffffffffffffffffffffffffffffffff160217905550808273ffffffffffffffffffffffffffffffffffffffff16600073ffffffffffffffffffffffffffffffffffffffff167fddf252ad1be2c89b69c2b068fc378daa952ba7f163c4a11628f55a4df523b3ef60405160405180910390a45050565b606060405180602001604052806000815250905090565b6060600082141561250b576040518060400160405280600181526020017f3000000000000000000000000000000000000000000000000000000000000000815250905061266b565b600082905060005b6000821461253d57808061252690613b74565b915050600a8261253691906139cc565b9150612513565b60008167ffffffffffffffff81111561257f577f4e487b7100000000000000000000000000000000000000000000000000000000600052604160045260246000fd5b6040519080825280601f01601f1916602001820160405280156125b15781602001600182028036833780820191505090505b5090505b60008514612664576001826125ca91906139fd565b9150600a856125d99190613bbd565b60306125e59190613976565b60f81b818381518110612621577f4e487b7100000000000000000000000000000000000000000000000000000000600052603260045260246000fd5b60200101907effffffffffffffffffffffffffffffffffffffffffffffffffffffffffffff1916908160001a905350600a8561265d91906139cc565b94506125b5565b8093505050505b919050565b505050565b60006126968473ffffffffffffffffffffffffffffffffffffffff1661280c565b156127ff578373ffffffffffffffffffffffffffffffffffffffff1663150b7a026126bf611d76565b8786866040518563ffffffff1660e01b81526004016126e19493929190613435565b602060405180830381600087803b1580156126fb57600080fd5b505af192505050801561272c57506040513d601f19601f820116820180604052508101906127299190612cc4565b60015b6127af573d806000811461275c576040519150601f19603f3d011682016040523d82523d6000602084013e612761565b606091505b506000815114156127a7576040517f08c379a000000000000000000000000000000000000000000000000000000000815260040161279e90613555565b60405180910390fd5b805181602001fd5b63150b7a0260e01b7bffffffffffffffffffffffffffffffffffffffffffffffffffffffff1916817bffffffffffffffffffffffffffffffffffffffffffffffffffffffff191614915050612804565b600190505b949350505050565b600080823b905060008111915050919050565b6040518060e00160405280600073ffffffffffffffffffffffffffffffffffffffff1681526020016060815260200160608152602001600081526020016000815260200160008152602001606081525090565b82805461287e90613b11565b90600052602060002090601f0160209004810192826128a057600085556128e7565b82601f106128b957805160ff19168380011785556128e7565b828001600101855582156128e7579182015b828111156128e65782518255916020019190600101906128cb565b5b5090506128f4919061299e565b5090565b82805482825590600052602060002090601f0160209004810192821561298d5791602002820160005b8382111561295e57835183826101000a81548160ff0219169083151502179055509260200192600101602081600001049283019260010302612921565b801561298b5782816101000a81549060ff021916905560010160208160000104928301926001030261295e565b505b50905061299a919061299e565b5090565b5b808211156129b757600081600090555060010161299f565b5090565b60006129ce6129c984613815565b6137f0565b9050828152602081018484840111156129e657600080fd5b6129f1848285613aa5565b509392505050565b6000612a0c612a0784613846565b6137f0565b905082815260208101848484011115612a2457600080fd5b612a2f848285613aa5565b509392505050565b600081359050612a46816141dd565b92915050565b600081359050612a5b816141f4565b92915050565b600081359050612a708161420b565b92915050565b600081519050612a858161420b565b92915050565b600082601f830112612a9c57600080fd5b8135612aac8482602086016129bb565b91505092915050565b600082601f830112612ac657600080fd5b8135612ad68482602086016129f9565b91505092915050565b600081359050612aee81614222565b92915050565b600060208284031215612b0657600080fd5b6000612b1484828501612a37565b91505092915050565b60008060408385031215612b3057600080fd5b6000612b3e85828601612a37565b9250506020612b4f85828601612a37565b9150509250929050565b600080600060608486031215612b6e57600080fd5b6000612b7c86828701612a37565b9350506020612b8d86828701612a37565b9250506040612b9e86828701612adf565b9150509250925092565b60008060008060808587031215612bbe57600080fd5b6000612bcc87828801612a37565b9450506020612bdd87828801612a37565b9350506040612bee87828801612adf565b925050606085013567ffffffffffffffff811115612c0b57600080fd5b612c1787828801612a8b565b91505092959194509250565b60008060408385031215612c3657600080fd5b6000612c4485828601612a37565b9250506020612c5585828601612a4c565b9150509250929050565b60008060408385031215612c7257600080fd5b6000612c8085828601612a37565b9250506020612c9185828601612adf565b9150509250929050565b600060208284031215612cad57600080fd5b6000612cbb84828501612a61565b91505092915050565b600060208284031215612cd657600080fd5b6000612ce484828501612a76565b91505092915050565b60008060008060808587031215612d0357600080fd5b600085013567ffffffffffffffff811115612d1d57600080fd5b612d2987828801612ab5565b945050602085013567ffffffffffffffff811115612d4657600080fd5b612d5287828801612ab5565b9350506040612d6387828801612adf565b9250506060612d7487828801612adf565b91505092959194509250565b600060208284031215612d9257600080fd5b6000612da084828501612adf565b91505092915050565b60008060408385031215612dbc57600080fd5b6000612dca85828601612adf565b9250506020612ddb85828601612adf565b9150509250929050565b6000612df18383612e29565b60208301905092915050565b6000612e098383612f78565b60208301905092915050565b6000612e21838361332e565b905092915050565b612e3281613a31565b82525050565b612e4181613a31565b82525050565b6000612e52826138a7565b612e5c8185613905565b9350612e6783613877565b8060005b83811015612e98578151612e7f8882612de5565b9750612e8a836138de565b925050600181019050612e6b565b5085935050505092915050565b6000612eb0826138b2565b612eba8185613916565b9350612ec583613887565b8060005b83811015612ef6578151612edd8882612dfd565b9750612ee8836138eb565b925050600181019050612ec9565b5085935050505092915050565b6000612f0e826138bd565b612f188185613927565b935083602082028501612f2a85613897565b8060005b85811015612f665784840389528151612f478582612e15565b9450612f52836138f8565b925060208a01995050600181019050612f2e565b50829750879550505050505092915050565b612f8181613a43565b82525050565b612f9081613a43565b82525050565b6000612fa1826138c8565b612fab8185613938565b9350612fbb818560208601613ab4565b612fc481613caa565b840191505092915050565b6000612fda826138d3565b612fe48185613949565b9350612ff4818560208601613ab4565b612ffd81613caa565b840191505092915050565b6000613013826138d3565b61301d818561395a565b935061302d818560208601613ab4565b61303681613caa565b840191505092915050565b600061304c826138d3565b613056818561396b565b9350613066818560208601613ab4565b80840191505092915050565b600061307f60328361395a565b915061308a82613cbb565b604082019050919050565b60006130a2601c8361395a565b91506130ad82613d0a565b602082019050919050565b60006130c560188361395a565b91506130d082613d33565b602082019050919050565b60006130e860248361395a565b91506130f382613d5c565b604082019050919050565b600061310b60198361395a565b915061311682613dab565b602082019050919050565b600061312e602c8361395a565b915061313982613dd4565b604082019050919050565b6000613151601c8361395a565b915061315c82613e23565b602082019050919050565b600061317460388361395a565b915061317f82613e4c565b604082019050919050565b6000613197602a8361395a565b91506131a282613e9b565b604082019050919050565b60006131ba60298361395a565b91506131c582613eea565b604082019050919050565b60006131dd60208361395a565b91506131e882613f39565b602082019050919050565b6000613200602c8361395a565b915061320b82613f62565b604082019050919050565b600061322360298361395a565b915061322e82613fb1565b604082019050919050565b6000613246602f8361395a565b915061325182614000565b604082019050919050565b600061326960218361395a565b91506132748261404f565b604082019050919050565b600061328c600f8361395a565b91506132978261409e565b602082019050919050565b60006132af60318361395a565b91506132ba826140c7565b604082019050919050565b60006132d260228361395a565b91506132dd82614116565b604082019050919050565b60006132f560198361395a565b915061330082614165565b602082019050919050565b600061331860218361395a565b91506133238261418e565b604082019050919050565b600060e0830160008301516133466000860182612e29565b506020830151848203602086015261335e8282612fcf565b915050604083015184820360408601526133788282612fcf565b915050606083015161338d60608601826133d8565b5060808301516133a060808601826133d8565b5060a08301516133b360a08601826133d8565b5060c083015184820360c08601526133cb8282612ea5565b9150508091505092915050565b6133e181613a9b565b82525050565b6133f081613a9b565b82525050565b60006134028285613041565b915061340e8284613041565b91508190509392505050565b600060208201905061342f6000830184612e38565b92915050565b600060808201905061344a6000830187612e38565b6134576020830186612e38565b61346460408301856133e7565b81810360608301526134768184612f96565b905095945050505050565b6000602082019050818103600083015261349b8184612e47565b905092915050565b600060208201905081810360008301526134bd8184612f03565b905092915050565b60006020820190506134da6000830184612f87565b92915050565b600060208201905081810360008301526134fa8184613008565b905092915050565b6000608082019050818103600083015261351c8187613008565b905081810360208301526135308186613008565b905061353f60408301856133e7565b61354c60608301846133e7565b95945050505050565b6000602082019050818103600083015261356e81613072565b9050919050565b6000602082019050818103600083015261358e81613095565b9050919050565b600060208201905081810360008301526135ae816130b8565b9050919050565b600060208201905081810360008301526135ce816130db565b9050919050565b600060208201905081810360008301526135ee816130fe565b9050919050565b6000602082019050818103600083015261360e81613121565b9050919050565b6000602082019050818103600083015261362e81613144565b9050919050565b6000602082019050818103600083015261364e81613167565b9050919050565b6000602082019050818103600083015261366e8161318a565b9050919050565b6000602082019050818103600083015261368e816131ad565b9050919050565b600060208201905081810360008301526136ae816131d0565b9050919050565b600060208201905081810360008301526136ce816131f3565b9050919050565b600060208201905081810360008301526136ee81613216565b9050919050565b6000602082019050818103600083015261370e81613239565b9050919050565b6000602082019050818103600083015261372e8161325c565b9050919050565b6000602082019050818103600083015261374e8161327f565b9050919050565b6000602082019050818103600083015261376e816132a2565b9050919050565b6000602082019050818103600083015261378e816132c5565b9050919050565b600060208201905081810360008301526137ae816132e8565b9050919050565b600060208201905081810360008301526137ce8161330b565b9050919050565b60006020820190506137ea60008301846133e7565b92915050565b60006137fa61380b565b90506138068282613b43565b919050565b6000604051905090565b600067ffffffffffffffff8211156138305761382f613c7b565b5b61383982613caa565b9050602081019050919050565b600067ffffffffffffffff82111561386157613860613c7b565b5b61386a82613caa565b9050602081019050919050565b6000819050602082019050919050565b6000819050602082019050919050565b6000819050602082019050919050565b600081519050919050565b600081519050919050565b600081519050919050565b600081519050919050565b600081519050919050565b6000602082019050919050565b6000602082019050919050565b6000602082019050919050565b600082825260208201905092915050565b600082825260208201905092915050565b600082825260208201905092915050565b600082825260208201905092915050565b600082825260208201905092915050565b600082825260208201905092915050565b600081905092915050565b600061398182613a9b565b915061398c83613a9b565b9250827fffffffffffffffffffffffffffffffffffffffffffffffffffffffffffffffff038211156139c1576139c0613bee565b5b828201905092915050565b60006139d782613a9b565b91506139e283613a9b565b9250826139f2576139f1613c1d565b5b828204905092915050565b6000613a0882613a9b565b9150613a1383613a9b565b925082821015613a2657613a25613bee565b5b828203905092915050565b6000613a3c82613a7b565b9050919050565b60008115159050919050565b60007fffffffff0000000000000000000000000000000000000000000000000000000082169050919050565b600073ffffffffffffffffffffffffffffffffffffffff82169050919050565b6000819050919050565b82818337600083830152505050565b60005b83811015613ad2578082015181840152602081019050613ab7565b83811115613ae1576000848401525b50505050565b6000613af282613a9b565b91506000821415613b0657613b05613bee565b5b600182039050919050565b60006002820490506001821680613b2957607f821691505b60208210811415613b3d57613b3c613c4c565b5b50919050565b613b4c82613caa565b810181811067ffffffffffffffff82111715613b6b57613b6a613c7b565b5b80604052505050565b6000613b7f82613a9b565b91507fffffffffffffffffffffffffffffffffffffffffffffffffffffffffffffffff821415613bb257613bb1613bee565b5b600182019050919050565b6000613bc882613a9b565b9150613bd383613a9b565b925082613be357613be2613c1d565b5b828206905092915050565b7f4e487b7100000000000000000000000000000000000000000000000000000000600052601160045260246000fd5b7f4e487b7100000000000000000000000000000000000000000000000000000000600052601260045260246000fd5b7f4e487b7100000000000000000000000000000000000000000000000000000000600052602260045260246000fd5b7f4e487b7100000000000000000000000000000000000000000000000000000000600052604160045260246000fd5b6000601f19601f8301169050919050565b7f4552433732313a207472616e7366657220746f206e6f6e20455243373231526560008201527f63656976657220696d706c656d656e7465720000000000000000000000000000602082015250565b7f4552433732313a20746f6b656e20616c7265616479206d696e74656400000000600082015250565b7f506c656173652073656e6420656e6f756768206d6f6e65790000000000000000600082015250565b7f4552433732313a207472616e7366657220746f20746865207a65726f2061646460008201527f7265737300000000000000000000000000000000000000000000000000000000602082015250565b7f4552433732313a20617070726f766520746f2063616c6c657200000000000000600082015250565b7f4552433732313a206f70657261746f7220717565727920666f72206e6f6e657860008201527f697374656e7420746f6b656e0000000000000000000000000000000000000000602082015250565b7f596f7520617265206e6f7420746865206576656e7420686f6c64657200000000600082015250565b7f4552433732313a20617070726f76652063616c6c6572206973206e6f74206f7760008201527f6e6572206e6f7220617070726f76656420666f7220616c6c0000000000000000602082015250565b7f4552433732313a2062616c616e636520717565727920666f7220746865207a6560008201527f726f206164647265737300000000000000000000000000000000000000000000602082015250565b7f4552433732313a206f776e657220717565727920666f72206e6f6e657869737460008201527f656e7420746f6b656e0000000000000000000000000000000000000000000000602082015250565b7f4552433732313a206d696e7420746f20746865207a65726f2061646472657373600082015250565b7f4552433732313a20617070726f76656420717565727920666f72206e6f6e657860008201527f697374656e7420746f6b656e0000000000000000000000000000000000000000602082015250565b7f4552433732313a207472616e73666572206f6620746f6b656e2074686174206960008201527f73206e6f74206f776e0000000000000000000000000000000000000000000000602082015250565b7f4552433732314d657461646174613a2055524920717565727920666f72206e6f60008201527f6e6578697374656e7420746f6b656e0000000000000000000000000000000000602082015250565b7f4552433732313a20617070726f76616c20746f2063757272656e74206f776e6560008201527f7200000000000000000000000000000000000000000000000000000000000000602082015250565b7f496e76616c696420416464726573730000000000000000000000000000000000600082015250565b7f4552433732313a207472616e736665722063616c6c6572206973206e6f74206f60008201527f776e6572206e6f7220617070726f766564000000000000000000000000000000602082015250565b7f54686973206576656e742068617320736f6c64206f7574206f66207469636b6560008201527f7473000000000000000000000000000000000000000000000000000000000000602082015250565b7f596f7520646f206e6f74206f776e207468697320546f6b656e00000000000000600082015250565b7f54686973207469636b65742068617320616c7265616479206265656e2075736560008201527f6400000000000000000000000000000000000000000000000000000000000000602082015250565b6141e681613a31565b81146141f157600080fd5b50565b6141fd81613a43565b811461420857600080fd5b50565b61421481613a4f565b811461421f57600080fd5b50565b61422b81613a9b565b811461423657600080fd5b5056fea26469706673582212202823705b88df3c362b8747ff157da40ca180583c227af34e98b1bf5a3d93ea7364736f6c63430008030033",
  "immutableReferences": {},
  "source": "// contracts/MyNFT.sol\n// SPDX-License-Identifier: MIT\npragma solidity ^0.8.0;\n\nimport \"@openzeppelin/contracts/token/ERC721/ERC721.sol\";\n\ncontract Tickets is ERC721 {\n\n    mapping(uint => address) IdxToHolder;\n\n    struct Event {\n        address eventHolder;\n        string eventName;\n        string URL;\n        \n        uint ticketPrice;\n        uint maxSupply;\n        //uint maxPurchaseAmount;\n\n        uint numTicketsPurchased;\n\n        bool[] ticketUsed;\n    }\n\n    Event[] private events;\n    mapping (address => uint) tokensOwnedByAddress;\n    \n    // Returns the index of all the events that this owner owns in the \"events\" array\n    mapping (address => uint256[]) private eventOwners;\n    constructor() public ERC721(\"Event\", \"TKT\") {}\n    \n    function transferTicket(address _to, uint _tokenID) public payable {\n\trequire(address(0) != _to, \"Invalid Address\");\n\ttransferFrom(msg.sender, _to, _tokenID);\n    }\n\n    function purchaseTicket(uint eventIdx) public payable returns (bool) {\n        Event storage thisEvent = events[eventIdx];\n\n        //require (quantity <= thisEvent.maxPurchaseAmount, \"Cannot purchase more than the maxPurchaseAmount for this ticket\");\n        require (thisEvent.numTicketsPurchased < thisEvent.maxSupply, \"This event has sold out of tickets\");\n        require (msg.value >= thisEvent.ticketPrice, \"Please send enough money\");\n\n        thisEvent.numTicketsPurchased;\n        \n        //for (uint i = 0; i < quantity ; i++) {\n        tokensOwnedByAddress[msg.sender] = thisEvent.numTicketsPurchased;\n\tIdxToHolder[thisEvent.numTicketsPurchased] = msg.sender;\n        _mint(msg.sender, thisEvent.numTicketsPurchased);\n        thisEvent.numTicketsPurchased++;\n        //}\n\n        return true;\n    }\n\n    function useTicket(uint eventIdx, uint tokenId) public returns (bool) {\n        Event storage thisEvent = events[eventIdx];\n        require (tokensOwnedByAddress[msg.sender] == tokenId, \"You do not own this Token\");\n        require (thisEvent.ticketUsed[tokenId] == false, \"This ticket has already been used\");\n\n        _burn(tokenId);\n\ttokensOwnedByAddress[msg.sender]--;\n\tIdxToHolder[tokenId] = address(0);\n        thisEvent.ticketUsed[tokenId] = true;\n\n        return true;\n    }\n\n    function createEvent (string memory Name, string memory URL, uint Price, uint totalTkts) public returns (uint){\n        Event memory ev1;\n        ev1.eventHolder = msg.sender;\n        //ev1.eventHolder : msg.sender,\n        ev1.eventName = Name;\n        ev1.URL = URL;\n        ev1.ticketPrice = Price;\n        ev1.maxSupply = totalTkts;\n       \t//maxPurchaseAmount : maxBuy,\n        ev1.numTicketsPurchased = 0;\n        // });\n\n        events.push(ev1);\n        uint eventIdx = events.length-1;\n\n        eventOwners[msg.sender].push(eventIdx);\n        return eventIdx;\n    }\n\n    function destroyEvent(uint eventIndex) public payable {\n    \trequire(msg.sender == events[eventIndex].eventHolder, \"You are not the event holder\");\n\tfor(uint i=0; i < events[eventIndex].numTicketsPurchased; i++) {\n\t\t_burn(i);\n\t\ttokensOwnedByAddress[IdxToHolder[i]] = 0;\n\t\tIdxToHolder[i] = address(0);\n\t}\n    }\n\n    // helper functions\n    function getTicketHolders(uint eventIdx) public view returns (address[] memory) {\n    \taddress[] memory  ticketHold;\n    \tfor(uint i=0; i < events[eventIdx].numTicketsPurchased; i++) {\n    \t\tticketHold[i] = IdxToHolder[i];\n    \t}\n    \treturn ticketHold;\n    }\n\n    function getEventInfo(uint eventIdx) public view returns (string memory, string memory, uint, uint) {\n    \treturn (events[eventIdx].eventName, events[eventIdx].URL, events[eventIdx].ticketPrice, events[eventIdx].numTicketsPurchased);\n    }\n    \n    function getEvents() public view returns (Event[] memory) {\n    \treturn events;\n    }\n    \n\n}\n",
  "sourcePath": "/home/jeff/TicketingEthereum/Ethereum-Ticketing/contracts/Tickets.sol",
  "compiler": {
    "name": "solc",
    "version": "0.8.3+commit.8d00100c.Emscripten.clang"
  },
  "schemaVersion": "3.3.4",
  "updatedAt": "2021-04-08T20:47:01.836Z",
  "devdoc": {
    "kind": "dev",
    "methods": {
      "approve(address,uint256)": {
        "details": "See {IERC721-approve}."
      },
      "balanceOf(address)": {
        "details": "See {IERC721-balanceOf}."
      },
      "getApproved(uint256)": {
        "details": "See {IERC721-getApproved}."
      },
      "isApprovedForAll(address,address)": {
        "details": "See {IERC721-isApprovedForAll}."
      },
      "name()": {
        "details": "See {IERC721Metadata-name}."
      },
      "ownerOf(uint256)": {
        "details": "See {IERC721-ownerOf}."
      },
      "safeTransferFrom(address,address,uint256)": {
        "details": "See {IERC721-safeTransferFrom}."
      },
      "safeTransferFrom(address,address,uint256,bytes)": {
        "details": "See {IERC721-safeTransferFrom}."
      },
      "setApprovalForAll(address,bool)": {
        "details": "See {IERC721-setApprovalForAll}."
      },
      "supportsInterface(bytes4)": {
        "details": "See {IERC165-supportsInterface}."
      },
      "symbol()": {
        "details": "See {IERC721Metadata-symbol}."
      },
      "tokenURI(uint256)": {
        "details": "See {IERC721Metadata-tokenURI}."
      },
      "transferFrom(address,address,uint256)": {
        "details": "See {IERC721-transferFrom}."
      }
    },
    "version": 1
  },
  "userdoc": {
    "kind": "user",
    "methods": {},
    "version": 1
  }
}